{
	"contracts/chai.sol": {
		"chai": {
			"abi": [
				{
					"inputs": [],
					"stateMutability": "nonpayable",
					"type": "constructor"
				},
				{
					"inputs": [
						{
							"internalType": "string",
							"name": "name",
							"type": "string"
						},
						{
							"internalType": "string",
							"name": "message",
							"type": "string"
						}
					],
					"name": "buyCoffee",
					"outputs": [],
					"stateMutability": "payable",
					"type": "function"
				},
				{
					"inputs": [],
					"name": "getMemos",
					"outputs": [
						{
							"components": [
								{
									"internalType": "string",
									"name": "name",
									"type": "string"
								},
								{
									"internalType": "string",
									"name": "message",
									"type": "string"
								},
								{
									"internalType": "uint256",
									"name": "setAt",
									"type": "uint256"
								},
								{
									"internalType": "address",
									"name": "fromAddress",
									"type": "address"
								}
							],
							"internalType": "struct chai.Memo[]",
							"name": "",
							"type": "tuple[]"
						}
					],
					"stateMutability": "view",
					"type": "function"
				}
			],
			"devdoc": {
				"kind": "dev",
				"methods": {},
				"version": 1
			},
			"evm": {
				"assembly": "    /* \"contracts/chai.sol\":58:678  contract chai{... */\n  mstore(0x40, 0x80)\n    /* \"contracts/chai.sol\":243:302  constructor(){... */\n  callvalue\n  dup1\n  iszero\n  tag_1\n  jumpi\n  0x00\n  dup1\n  revert\ntag_1:\n  pop\n    /* \"contracts/chai.sol\":280:290  msg.sender */\n  caller\n    /* \"contracts/chai.sol\":266:271  owner */\n  0x01\n  0x00\n    /* \"contracts/chai.sol\":266:291  owner=payable(msg.sender) */\n  0x0100\n  exp\n  dup2\n  sload\n  dup2\n  0xffffffffffffffffffffffffffffffffffffffff\n  mul\n  not\n  and\n  swap1\n  dup4\n  0xffffffffffffffffffffffffffffffffffffffff\n  and\n  mul\n  or\n  swap1\n  sstore\n  pop\n    /* \"contracts/chai.sol\":58:678  contract chai{... */\n  dataSize(sub_0)\n  dup1\n  dataOffset(sub_0)\n  0x00\n  codecopy\n  0x00\n  return\nstop\n\nsub_0: assembly {\n        /* \"contracts/chai.sol\":58:678  contract chai{... */\n      mstore(0x40, 0x80)\n      jumpi(tag_1, lt(calldatasize, 0x04))\n      shr(0xe0, calldataload(0x00))\n      dup1\n      0x204206e1\n      eq\n      tag_2\n      jumpi\n      dup1\n      0x865c5172\n      eq\n      tag_3\n      jumpi\n    tag_1:\n      0x00\n      dup1\n      revert\n        /* \"contracts/chai.sol\":312:582  function buyCoffee(string calldata name, string calldata message)external payable{... */\n    tag_2:\n      tag_4\n      0x04\n      dup1\n      calldatasize\n      sub\n      dup2\n      add\n      swap1\n      tag_5\n      swap2\n      swap1\n      tag_6\n      jump\t// in\n    tag_5:\n      tag_7\n      jump\t// in\n    tag_4:\n      stop\n        /* \"contracts/chai.sol\":591:676  function getMemos() public view returns(Memo[] memory){... */\n    tag_3:\n      callvalue\n      dup1\n      iszero\n      tag_8\n      jumpi\n      0x00\n      dup1\n      revert\n    tag_8:\n      pop\n      tag_9\n      tag_10\n      jump\t// in\n    tag_9:\n      mload(0x40)\n      tag_11\n      swap2\n      swap1\n      tag_12\n      jump\t// in\n    tag_11:\n      mload(0x40)\n      dup1\n      swap2\n      sub\n      swap1\n      return\n        /* \"contracts/chai.sol\":312:582  function buyCoffee(string calldata name, string calldata message)external payable{... */\n    tag_7:\n        /* \"contracts/chai.sol\":425:429  1e18 */\n      0x0de0b6b3a7640000\n        /* \"contracts/chai.sol\":415:424  msg.value */\n      callvalue\n        /* \"contracts/chai.sol\":415:429  msg.value>1e18 */\n      gt\n        /* \"contracts/chai.sol\":407:460  require(msg.value>1e18,\"Please pay more than 0.1ETH\") */\n      tag_14\n      jumpi\n      mload(0x40)\n      0x08c379a000000000000000000000000000000000000000000000000000000000\n      dup2\n      mstore\n      0x04\n      add\n      tag_15\n      swap1\n      tag_16\n      jump\t// in\n    tag_15:\n      mload(0x40)\n      dup1\n      swap2\n      sub\n      swap1\n      revert\n    tag_14:\n        /* \"contracts/chai.sol\":474:479  owner */\n      0x01\n      0x00\n      swap1\n      sload\n      swap1\n      0x0100\n      exp\n      swap1\n      div\n      0xffffffffffffffffffffffffffffffffffffffff\n      and\n        /* \"contracts/chai.sol\":474:488  owner.transfer */\n      0xffffffffffffffffffffffffffffffffffffffff\n      and\n        /* \"contracts/chai.sol\":474:499  owner.transfer(msg.value) */\n      0x08fc\n        /* \"contracts/chai.sol\":489:498  msg.value */\n      callvalue\n        /* \"contracts/chai.sol\":474:499  owner.transfer(msg.value) */\n      swap1\n      dup2\n      iszero\n      mul\n      swap1\n      mload(0x40)\n      0x00\n      mload(0x40)\n      dup1\n      dup4\n      sub\n      dup2\n      dup6\n      dup9\n      dup9\n      call\n      swap4\n      pop\n      pop\n      pop\n      pop\n      iszero\n      dup1\n      iszero\n      tag_18\n      jumpi\n      returndatasize\n      0x00\n      dup1\n      returndatacopy\n      revert(0x00, returndatasize)\n    tag_18:\n      pop\n        /* \"contracts/chai.sol\":513:518  memos */\n      0x00\n        /* \"contracts/chai.sol\":524:569  Memo(name,message,block.timestamp,msg.sender) */\n      mload(0x40)\n      dup1\n      0x80\n      add\n      0x40\n      mstore\n      dup1\n        /* \"contracts/chai.sol\":529:533  name */\n      dup7\n      dup7\n        /* \"contracts/chai.sol\":524:569  Memo(name,message,block.timestamp,msg.sender) */\n      dup1\n      dup1\n      0x1f\n      add\n      0x20\n      dup1\n      swap2\n      div\n      mul\n      0x20\n      add\n      mload(0x40)\n      swap1\n      dup2\n      add\n      0x40\n      mstore\n      dup1\n      swap4\n      swap3\n      swap2\n      swap1\n      dup2\n      dup2\n      mstore\n      0x20\n      add\n      dup4\n      dup4\n      dup1\n      dup3\n      dup5\n      calldatacopy\n      0x00\n      dup2\n      dup5\n      add\n      mstore\n      not(0x1f)\n      0x1f\n      dup3\n      add\n      and\n      swap1\n      pop\n      dup1\n      dup4\n      add\n      swap3\n      pop\n      pop\n      pop\n      pop\n      pop\n      pop\n      pop\n      dup2\n      mstore\n      0x20\n      add\n        /* \"contracts/chai.sol\":534:541  message */\n      dup5\n      dup5\n        /* \"contracts/chai.sol\":524:569  Memo(name,message,block.timestamp,msg.sender) */\n      dup1\n      dup1\n      0x1f\n      add\n      0x20\n      dup1\n      swap2\n      div\n      mul\n      0x20\n      add\n      mload(0x40)\n      swap1\n      dup2\n      add\n      0x40\n      mstore\n      dup1\n      swap4\n      swap3\n      swap2\n      swap1\n      dup2\n      dup2\n      mstore\n      0x20\n      add\n      dup4\n      dup4\n      dup1\n      dup3\n      dup5\n      calldatacopy\n      0x00\n      dup2\n      dup5\n      add\n      mstore\n      not(0x1f)\n      0x1f\n      dup3\n      add\n      and\n      swap1\n      pop\n      dup1\n      dup4\n      add\n      swap3\n      pop\n      pop\n      pop\n      pop\n      pop\n      pop\n      pop\n      dup2\n      mstore\n      0x20\n      add\n        /* \"contracts/chai.sol\":542:557  block.timestamp */\n      timestamp\n        /* \"contracts/chai.sol\":524:569  Memo(name,message,block.timestamp,msg.sender) */\n      dup2\n      mstore\n      0x20\n      add\n        /* \"contracts/chai.sol\":558:568  msg.sender */\n      caller\n        /* \"contracts/chai.sol\":524:569  Memo(name,message,block.timestamp,msg.sender) */\n      0xffffffffffffffffffffffffffffffffffffffff\n      and\n      dup2\n      mstore\n      pop\n        /* \"contracts/chai.sol\":513:570  memos.push(Memo(name,message,block.timestamp,msg.sender)) */\n      swap1\n      dup1\n      0x01\n      dup2\n      sload\n      add\n      dup1\n      dup3\n      sstore\n      dup1\n      swap2\n      pop\n      pop\n      0x01\n      swap1\n      sub\n      swap1\n      0x00\n      mstore\n      keccak256(0x00, 0x20)\n      swap1\n      0x04\n      mul\n      add\n      0x00\n      swap1\n      swap2\n      swap1\n      swap2\n      swap1\n      swap2\n      pop\n      0x00\n      dup3\n      add\n      mload\n      dup2\n      0x00\n      add\n      swap1\n      dup2\n      tag_20\n      swap2\n      swap1\n      tag_21\n      jump\t// in\n    tag_20:\n      pop\n      0x20\n      dup3\n      add\n      mload\n      dup2\n      0x01\n      add\n      swap1\n      dup2\n      tag_22\n      swap2\n      swap1\n      tag_21\n      jump\t// in\n    tag_22:\n      pop\n      0x40\n      dup3\n      add\n      mload\n      dup2\n      0x02\n      add\n      sstore\n      0x60\n      dup3\n      add\n      mload\n      dup2\n      0x03\n      add\n      exp(0x0100, 0x00)\n      dup2\n      sload\n      dup2\n      0xffffffffffffffffffffffffffffffffffffffff\n      mul\n      not\n      and\n      swap1\n      dup4\n      0xffffffffffffffffffffffffffffffffffffffff\n      and\n      mul\n      or\n      swap1\n      sstore\n      pop\n      pop\n      pop\n        /* \"contracts/chai.sol\":312:582  function buyCoffee(string calldata name, string calldata message)external payable{... */\n      pop\n      pop\n      pop\n      pop\n      jump\t// out\n        /* \"contracts/chai.sol\":591:676  function getMemos() public view returns(Memo[] memory){... */\n    tag_10:\n        /* \"contracts/chai.sol\":631:644  Memo[] memory */\n      0x60\n        /* \"contracts/chai.sol\":660:665  memos */\n      0x00\n        /* \"contracts/chai.sol\":653:665  return memos */\n      dup1\n      sload\n      dup1\n      0x20\n      mul\n      0x20\n      add\n      mload(0x40)\n      swap1\n      dup2\n      add\n      0x40\n      mstore\n      dup1\n      swap3\n      swap2\n      swap1\n      dup2\n      dup2\n      mstore\n      0x20\n      add\n      0x00\n      swap1\n    tag_24:\n      dup3\n      dup3\n      lt\n      iszero\n      tag_25\n      jumpi\n      dup4\n      dup3\n      swap1\n      0x00\n      mstore\n      keccak256(0x00, 0x20)\n      swap1\n      0x04\n      mul\n      add\n      mload(0x40)\n      dup1\n      0x80\n      add\n      0x40\n      mstore\n      swap1\n      dup2\n      0x00\n      dup3\n      add\n      dup1\n      sload\n      tag_27\n      swap1\n      tag_28\n      jump\t// in\n    tag_27:\n      dup1\n      0x1f\n      add\n      0x20\n      dup1\n      swap2\n      div\n      mul\n      0x20\n      add\n      mload(0x40)\n      swap1\n      dup2\n      add\n      0x40\n      mstore\n      dup1\n      swap3\n      swap2\n      swap1\n      dup2\n      dup2\n      mstore\n      0x20\n      add\n      dup3\n      dup1\n      sload\n      tag_29\n      swap1\n      tag_28\n      jump\t// in\n    tag_29:\n      dup1\n      iszero\n      tag_30\n      jumpi\n      dup1\n      0x1f\n      lt\n      tag_31\n      jumpi\n      0x0100\n      dup1\n      dup4\n      sload\n      div\n      mul\n      dup4\n      mstore\n      swap2\n      0x20\n      add\n      swap2\n      jump(tag_30)\n    tag_31:\n      dup3\n      add\n      swap2\n      swap1\n      0x00\n      mstore\n      keccak256(0x00, 0x20)\n      swap1\n    tag_32:\n      dup2\n      sload\n      dup2\n      mstore\n      swap1\n      0x01\n      add\n      swap1\n      0x20\n      add\n      dup1\n      dup4\n      gt\n      tag_32\n      jumpi\n      dup3\n      swap1\n      sub\n      0x1f\n      and\n      dup3\n      add\n      swap2\n    tag_30:\n      pop\n      pop\n      pop\n      pop\n      pop\n      dup2\n      mstore\n      0x20\n      add\n      0x01\n      dup3\n      add\n      dup1\n      sload\n      tag_33\n      swap1\n      tag_28\n      jump\t// in\n    tag_33:\n      dup1\n      0x1f\n      add\n      0x20\n      dup1\n      swap2\n      div\n      mul\n      0x20\n      add\n      mload(0x40)\n      swap1\n      dup2\n      add\n      0x40\n      mstore\n      dup1\n      swap3\n      swap2\n      swap1\n      dup2\n      dup2\n      mstore\n      0x20\n      add\n      dup3\n      dup1\n      sload\n      tag_34\n      swap1\n      tag_28\n      jump\t// in\n    tag_34:\n      dup1\n      iszero\n      tag_35\n      jumpi\n      dup1\n      0x1f\n      lt\n      tag_36\n      jumpi\n      0x0100\n      dup1\n      dup4\n      sload\n      div\n      mul\n      dup4\n      mstore\n      swap2\n      0x20\n      add\n      swap2\n      jump(tag_35)\n    tag_36:\n      dup3\n      add\n      swap2\n      swap1\n      0x00\n      mstore\n      keccak256(0x00, 0x20)\n      swap1\n    tag_37:\n      dup2\n      sload\n      dup2\n      mstore\n      swap1\n      0x01\n      add\n      swap1\n      0x20\n      add\n      dup1\n      dup4\n      gt\n      tag_37\n      jumpi\n      dup3\n      swap1\n      sub\n      0x1f\n      and\n      dup3\n      add\n      swap2\n    tag_35:\n      pop\n      pop\n      pop\n      pop\n      pop\n      dup2\n      mstore\n      0x20\n      add\n      0x02\n      dup3\n      add\n      sload\n      dup2\n      mstore\n      0x20\n      add\n      0x03\n      dup3\n      add\n      0x00\n      swap1\n      sload\n      swap1\n      0x0100\n      exp\n      swap1\n      div\n      0xffffffffffffffffffffffffffffffffffffffff\n      and\n      0xffffffffffffffffffffffffffffffffffffffff\n      and\n      0xffffffffffffffffffffffffffffffffffffffff\n      and\n      dup2\n      mstore\n      pop\n      pop\n      dup2\n      mstore\n      0x20\n      add\n      swap1\n      0x01\n      add\n      swap1\n      jump(tag_24)\n    tag_25:\n      pop\n      pop\n      pop\n      pop\n      swap1\n      pop\n        /* \"contracts/chai.sol\":591:676  function getMemos() public view returns(Memo[] memory){... */\n      swap1\n      jump\t// out\n        /* \"#utility.yul\":88:205   */\n    tag_39:\n        /* \"#utility.yul\":197:198   */\n      0x00\n        /* \"#utility.yul\":194:195   */\n      dup1\n        /* \"#utility.yul\":187:199   */\n      revert\n        /* \"#utility.yul\":211:328   */\n    tag_40:\n        /* \"#utility.yul\":320:321   */\n      0x00\n        /* \"#utility.yul\":317:318   */\n      dup1\n        /* \"#utility.yul\":310:322   */\n      revert\n        /* \"#utility.yul\":334:451   */\n    tag_41:\n        /* \"#utility.yul\":443:444   */\n      0x00\n        /* \"#utility.yul\":440:441   */\n      dup1\n        /* \"#utility.yul\":433:445   */\n      revert\n        /* \"#utility.yul\":457:574   */\n    tag_42:\n        /* \"#utility.yul\":566:567   */\n      0x00\n        /* \"#utility.yul\":563:564   */\n      dup1\n        /* \"#utility.yul\":556:568   */\n      revert\n        /* \"#utility.yul\":580:697   */\n    tag_43:\n        /* \"#utility.yul\":689:690   */\n      0x00\n        /* \"#utility.yul\":686:687   */\n      dup1\n        /* \"#utility.yul\":679:691   */\n      revert\n        /* \"#utility.yul\":717:1270   */\n    tag_44:\n        /* \"#utility.yul\":775:783   */\n      0x00\n        /* \"#utility.yul\":785:791   */\n      dup1\n        /* \"#utility.yul\":835:838   */\n      dup4\n        /* \"#utility.yul\":828:832   */\n      0x1f\n        /* \"#utility.yul\":820:826   */\n      dup5\n        /* \"#utility.yul\":816:833   */\n      add\n        /* \"#utility.yul\":812:839   */\n      slt\n        /* \"#utility.yul\":802:924   */\n      tag_90\n      jumpi\n        /* \"#utility.yul\":843:922   */\n      tag_91\n      tag_41\n      jump\t// in\n    tag_91:\n        /* \"#utility.yul\":802:924   */\n    tag_90:\n        /* \"#utility.yul\":956:962   */\n      dup3\n        /* \"#utility.yul\":943:963   */\n      calldataload\n        /* \"#utility.yul\":933:963   */\n      swap1\n      pop\n        /* \"#utility.yul\":986:1004   */\n      0xffffffffffffffff\n        /* \"#utility.yul\":978:984   */\n      dup2\n        /* \"#utility.yul\":975:1005   */\n      gt\n        /* \"#utility.yul\":972:1089   */\n      iszero\n      tag_92\n      jumpi\n        /* \"#utility.yul\":1008:1087   */\n      tag_93\n      tag_42\n      jump\t// in\n    tag_93:\n        /* \"#utility.yul\":972:1089   */\n    tag_92:\n        /* \"#utility.yul\":1122:1126   */\n      0x20\n        /* \"#utility.yul\":1114:1120   */\n      dup4\n        /* \"#utility.yul\":1110:1127   */\n      add\n        /* \"#utility.yul\":1098:1127   */\n      swap2\n      pop\n        /* \"#utility.yul\":1176:1179   */\n      dup4\n        /* \"#utility.yul\":1168:1172   */\n      0x01\n        /* \"#utility.yul\":1160:1166   */\n      dup3\n        /* \"#utility.yul\":1156:1173   */\n      mul\n        /* \"#utility.yul\":1146:1154   */\n      dup4\n        /* \"#utility.yul\":1142:1174   */\n      add\n        /* \"#utility.yul\":1139:1180   */\n      gt\n        /* \"#utility.yul\":1136:1264   */\n      iszero\n      tag_94\n      jumpi\n        /* \"#utility.yul\":1183:1262   */\n      tag_95\n      tag_43\n      jump\t// in\n    tag_95:\n        /* \"#utility.yul\":1136:1264   */\n    tag_94:\n        /* \"#utility.yul\":717:1270   */\n      swap3\n      pop\n      swap3\n      swap1\n      pop\n      jump\t// out\n        /* \"#utility.yul\":1276:2150   */\n    tag_6:\n        /* \"#utility.yul\":1368:1374   */\n      0x00\n        /* \"#utility.yul\":1376:1382   */\n      dup1\n        /* \"#utility.yul\":1384:1390   */\n      0x00\n        /* \"#utility.yul\":1392:1398   */\n      dup1\n        /* \"#utility.yul\":1441:1443   */\n      0x40\n        /* \"#utility.yul\":1429:1438   */\n      dup6\n        /* \"#utility.yul\":1420:1427   */\n      dup8\n        /* \"#utility.yul\":1416:1439   */\n      sub\n        /* \"#utility.yul\":1412:1444   */\n      slt\n        /* \"#utility.yul\":1409:1528   */\n      iszero\n      tag_97\n      jumpi\n        /* \"#utility.yul\":1447:1526   */\n      tag_98\n      tag_39\n      jump\t// in\n    tag_98:\n        /* \"#utility.yul\":1409:1528   */\n    tag_97:\n        /* \"#utility.yul\":1595:1596   */\n      0x00\n        /* \"#utility.yul\":1584:1593   */\n      dup6\n        /* \"#utility.yul\":1580:1597   */\n      add\n        /* \"#utility.yul\":1567:1598   */\n      calldataload\n        /* \"#utility.yul\":1625:1643   */\n      0xffffffffffffffff\n        /* \"#utility.yul\":1617:1623   */\n      dup2\n        /* \"#utility.yul\":1614:1644   */\n      gt\n        /* \"#utility.yul\":1611:1728   */\n      iszero\n      tag_99\n      jumpi\n        /* \"#utility.yul\":1647:1726   */\n      tag_100\n      tag_40\n      jump\t// in\n    tag_100:\n        /* \"#utility.yul\":1611:1728   */\n    tag_99:\n        /* \"#utility.yul\":1760:1825   */\n      tag_101\n        /* \"#utility.yul\":1817:1824   */\n      dup8\n        /* \"#utility.yul\":1808:1814   */\n      dup3\n        /* \"#utility.yul\":1797:1806   */\n      dup9\n        /* \"#utility.yul\":1793:1815   */\n      add\n        /* \"#utility.yul\":1760:1825   */\n      tag_44\n      jump\t// in\n    tag_101:\n        /* \"#utility.yul\":1742:1825   */\n      swap5\n      pop\n      swap5\n      pop\n        /* \"#utility.yul\":1538:1835   */\n      pop\n        /* \"#utility.yul\":1902:1904   */\n      0x20\n        /* \"#utility.yul\":1891:1900   */\n      dup6\n        /* \"#utility.yul\":1887:1905   */\n      add\n        /* \"#utility.yul\":1874:1906   */\n      calldataload\n        /* \"#utility.yul\":1933:1951   */\n      0xffffffffffffffff\n        /* \"#utility.yul\":1925:1931   */\n      dup2\n        /* \"#utility.yul\":1922:1952   */\n      gt\n        /* \"#utility.yul\":1919:2036   */\n      iszero\n      tag_102\n      jumpi\n        /* \"#utility.yul\":1955:2034   */\n      tag_103\n      tag_40\n      jump\t// in\n    tag_103:\n        /* \"#utility.yul\":1919:2036   */\n    tag_102:\n        /* \"#utility.yul\":2068:2133   */\n      tag_104\n        /* \"#utility.yul\":2125:2132   */\n      dup8\n        /* \"#utility.yul\":2116:2122   */\n      dup3\n        /* \"#utility.yul\":2105:2114   */\n      dup9\n        /* \"#utility.yul\":2101:2123   */\n      add\n        /* \"#utility.yul\":2068:2133   */\n      tag_44\n      jump\t// in\n    tag_104:\n        /* \"#utility.yul\":2050:2133   */\n      swap3\n      pop\n      swap3\n      pop\n        /* \"#utility.yul\":1845:2143   */\n      pop\n        /* \"#utility.yul\":1276:2150   */\n      swap3\n      swap6\n      swap2\n      swap5\n      pop\n      swap3\n      pop\n      jump\t// out\n        /* \"#utility.yul\":2156:2290   */\n    tag_45:\n        /* \"#utility.yul\":2243:2249   */\n      0x00\n        /* \"#utility.yul\":2277:2282   */\n      dup2\n        /* \"#utility.yul\":2271:2283   */\n      mload\n        /* \"#utility.yul\":2261:2283   */\n      swap1\n      pop\n        /* \"#utility.yul\":2156:2290   */\n      swap2\n      swap1\n      pop\n      jump\t// out\n        /* \"#utility.yul\":2296:2500   */\n    tag_46:\n        /* \"#utility.yul\":2415:2426   */\n      0x00\n        /* \"#utility.yul\":2449:2455   */\n      dup3\n        /* \"#utility.yul\":2444:2447   */\n      dup3\n        /* \"#utility.yul\":2437:2456   */\n      mstore\n        /* \"#utility.yul\":2489:2493   */\n      0x20\n        /* \"#utility.yul\":2484:2487   */\n      dup3\n        /* \"#utility.yul\":2480:2494   */\n      add\n        /* \"#utility.yul\":2465:2494   */\n      swap1\n      pop\n        /* \"#utility.yul\":2296:2500   */\n      swap3\n      swap2\n      pop\n      pop\n      jump\t// out\n        /* \"#utility.yul\":2506:2658   */\n    tag_47:\n        /* \"#utility.yul\":2593:2597   */\n      0x00\n        /* \"#utility.yul\":2616:2619   */\n      dup2\n        /* \"#utility.yul\":2608:2619   */\n      swap1\n      pop\n        /* \"#utility.yul\":2646:2650   */\n      0x20\n        /* \"#utility.yul\":2641:2644   */\n      dup3\n        /* \"#utility.yul\":2637:2651   */\n      add\n        /* \"#utility.yul\":2629:2651   */\n      swap1\n      pop\n        /* \"#utility.yul\":2506:2658   */\n      swap2\n      swap1\n      pop\n      jump\t// out\n        /* \"#utility.yul\":2664:2763   */\n    tag_48:\n        /* \"#utility.yul\":2716:2722   */\n      0x00\n        /* \"#utility.yul\":2750:2755   */\n      dup2\n        /* \"#utility.yul\":2744:2756   */\n      mload\n        /* \"#utility.yul\":2734:2756   */\n      swap1\n      pop\n        /* \"#utility.yul\":2664:2763   */\n      swap2\n      swap1\n      pop\n      jump\t// out\n        /* \"#utility.yul\":2769:2928   */\n    tag_49:\n        /* \"#utility.yul\":2843:2854   */\n      0x00\n        /* \"#utility.yul\":2877:2883   */\n      dup3\n        /* \"#utility.yul\":2872:2875   */\n      dup3\n        /* \"#utility.yul\":2865:2884   */\n      mstore\n        /* \"#utility.yul\":2917:2921   */\n      0x20\n        /* \"#utility.yul\":2912:2915   */\n      dup3\n        /* \"#utility.yul\":2908:2922   */\n      add\n        /* \"#utility.yul\":2893:2922   */\n      swap1\n      pop\n        /* \"#utility.yul\":2769:2928   */\n      swap3\n      swap2\n      pop\n      pop\n      jump\t// out\n        /* \"#utility.yul\":2934:3180   */\n    tag_50:\n        /* \"#utility.yul\":3015:3016   */\n      0x00\n        /* \"#utility.yul\":3025:3138   */\n    tag_111:\n        /* \"#utility.yul\":3039:3045   */\n      dup4\n        /* \"#utility.yul\":3036:3037   */\n      dup2\n        /* \"#utility.yul\":3033:3046   */\n      lt\n        /* \"#utility.yul\":3025:3138   */\n      iszero\n      tag_113\n      jumpi\n        /* \"#utility.yul\":3124:3125   */\n      dup1\n        /* \"#utility.yul\":3119:3122   */\n      dup3\n        /* \"#utility.yul\":3115:3126   */\n      add\n        /* \"#utility.yul\":3109:3127   */\n      mload\n        /* \"#utility.yul\":3105:3106   */\n      dup2\n        /* \"#utility.yul\":3100:3103   */\n      dup5\n        /* \"#utility.yul\":3096:3107   */\n      add\n        /* \"#utility.yul\":3089:3128   */\n      mstore\n        /* \"#utility.yul\":3061:3063   */\n      0x20\n        /* \"#utility.yul\":3058:3059   */\n      dup2\n        /* \"#utility.yul\":3054:3064   */\n      add\n        /* \"#utility.yul\":3049:3064   */\n      swap1\n      pop\n        /* \"#utility.yul\":3025:3138   */\n      jump(tag_111)\n    tag_113:\n        /* \"#utility.yul\":3172:3173   */\n      0x00\n        /* \"#utility.yul\":3163:3169   */\n      dup5\n        /* \"#utility.yul\":3158:3161   */\n      dup5\n        /* \"#utility.yul\":3154:3170   */\n      add\n        /* \"#utility.yul\":3147:3174   */\n      mstore\n        /* \"#utility.yul\":2996:3180   */\n      pop\n        /* \"#utility.yul\":2934:3180   */\n      pop\n      pop\n      pop\n      jump\t// out\n        /* \"#utility.yul\":3186:3288   */\n    tag_51:\n        /* \"#utility.yul\":3227:3233   */\n      0x00\n        /* \"#utility.yul\":3278:3280   */\n      0x1f\n        /* \"#utility.yul\":3274:3281   */\n      not\n        /* \"#utility.yul\":3269:3271   */\n      0x1f\n        /* \"#utility.yul\":3262:3267   */\n      dup4\n        /* \"#utility.yul\":3258:3272   */\n      add\n        /* \"#utility.yul\":3254:3282   */\n      and\n        /* \"#utility.yul\":3244:3282   */\n      swap1\n      pop\n        /* \"#utility.yul\":3186:3288   */\n      swap2\n      swap1\n      pop\n      jump\t// out\n        /* \"#utility.yul\":3294:3651   */\n    tag_52:\n        /* \"#utility.yul\":3372:3375   */\n      0x00\n        /* \"#utility.yul\":3400:3439   */\n      tag_116\n        /* \"#utility.yul\":3433:3438   */\n      dup3\n        /* \"#utility.yul\":3400:3439   */\n      tag_48\n      jump\t// in\n    tag_116:\n        /* \"#utility.yul\":3455:3516   */\n      tag_117\n        /* \"#utility.yul\":3509:3515   */\n      dup2\n        /* \"#utility.yul\":3504:3507   */\n      dup6\n        /* \"#utility.yul\":3455:3516   */\n      tag_49\n      jump\t// in\n    tag_117:\n        /* \"#utility.yul\":3448:3516   */\n      swap4\n      pop\n        /* \"#utility.yul\":3525:3590   */\n      tag_118\n        /* \"#utility.yul\":3583:3589   */\n      dup2\n        /* \"#utility.yul\":3578:3581   */\n      dup6\n        /* \"#utility.yul\":3571:3575   */\n      0x20\n        /* \"#utility.yul\":3564:3569   */\n      dup7\n        /* \"#utility.yul\":3560:3576   */\n      add\n        /* \"#utility.yul\":3525:3590   */\n      tag_50\n      jump\t// in\n    tag_118:\n        /* \"#utility.yul\":3615:3644   */\n      tag_119\n        /* \"#utility.yul\":3637:3643   */\n      dup2\n        /* \"#utility.yul\":3615:3644   */\n      tag_51\n      jump\t// in\n    tag_119:\n        /* \"#utility.yul\":3610:3613   */\n      dup5\n        /* \"#utility.yul\":3606:3645   */\n      add\n        /* \"#utility.yul\":3599:3645   */\n      swap2\n      pop\n        /* \"#utility.yul\":3376:3651   */\n      pop\n        /* \"#utility.yul\":3294:3651   */\n      swap3\n      swap2\n      pop\n      pop\n      jump\t// out\n        /* \"#utility.yul\":3657:3734   */\n    tag_53:\n        /* \"#utility.yul\":3694:3701   */\n      0x00\n        /* \"#utility.yul\":3723:3728   */\n      dup2\n        /* \"#utility.yul\":3712:3728   */\n      swap1\n      pop\n        /* \"#utility.yul\":3657:3734   */\n      swap2\n      swap1\n      pop\n      jump\t// out\n        /* \"#utility.yul\":3740:3848   */\n    tag_54:\n        /* \"#utility.yul\":3817:3841   */\n      tag_122\n        /* \"#utility.yul\":3835:3840   */\n      dup2\n        /* \"#utility.yul\":3817:3841   */\n      tag_53\n      jump\t// in\n    tag_122:\n        /* \"#utility.yul\":3812:3815   */\n      dup3\n        /* \"#utility.yul\":3805:3842   */\n      mstore\n        /* \"#utility.yul\":3740:3848   */\n      pop\n      pop\n      jump\t// out\n        /* \"#utility.yul\":3854:3980   */\n    tag_55:\n        /* \"#utility.yul\":3891:3898   */\n      0x00\n        /* \"#utility.yul\":3931:3973   */\n      0xffffffffffffffffffffffffffffffffffffffff\n        /* \"#utility.yul\":3924:3929   */\n      dup3\n        /* \"#utility.yul\":3920:3974   */\n      and\n        /* \"#utility.yul\":3909:3974   */\n      swap1\n      pop\n        /* \"#utility.yul\":3854:3980   */\n      swap2\n      swap1\n      pop\n      jump\t// out\n        /* \"#utility.yul\":3986:4082   */\n    tag_56:\n        /* \"#utility.yul\":4023:4030   */\n      0x00\n        /* \"#utility.yul\":4052:4076   */\n      tag_125\n        /* \"#utility.yul\":4070:4075   */\n      dup3\n        /* \"#utility.yul\":4052:4076   */\n      tag_55\n      jump\t// in\n    tag_125:\n        /* \"#utility.yul\":4041:4076   */\n      swap1\n      pop\n        /* \"#utility.yul\":3986:4082   */\n      swap2\n      swap1\n      pop\n      jump\t// out\n        /* \"#utility.yul\":4088:4196   */\n    tag_57:\n        /* \"#utility.yul\":4165:4189   */\n      tag_127\n        /* \"#utility.yul\":4183:4188   */\n      dup2\n        /* \"#utility.yul\":4165:4189   */\n      tag_56\n      jump\t// in\n    tag_127:\n        /* \"#utility.yul\":4160:4163   */\n      dup3\n        /* \"#utility.yul\":4153:4190   */\n      mstore\n        /* \"#utility.yul\":4088:4196   */\n      pop\n      pop\n      jump\t// out\n        /* \"#utility.yul\":4246:5262   */\n    tag_58:\n        /* \"#utility.yul\":4345:4348   */\n      0x00\n        /* \"#utility.yul\":4381:4385   */\n      0x80\n        /* \"#utility.yul\":4376:4379   */\n      dup4\n        /* \"#utility.yul\":4372:4386   */\n      add\n        /* \"#utility.yul\":4468:4472   */\n      0x00\n        /* \"#utility.yul\":4461:4466   */\n      dup4\n        /* \"#utility.yul\":4457:4473   */\n      add\n        /* \"#utility.yul\":4451:4474   */\n      mload\n        /* \"#utility.yul\":4521:4524   */\n      dup5\n        /* \"#utility.yul\":4515:4519   */\n      dup3\n        /* \"#utility.yul\":4511:4525   */\n      sub\n        /* \"#utility.yul\":4504:4508   */\n      0x00\n        /* \"#utility.yul\":4499:4502   */\n      dup7\n        /* \"#utility.yul\":4495:4509   */\n      add\n        /* \"#utility.yul\":4488:4526   */\n      mstore\n        /* \"#utility.yul\":4547:4620   */\n      tag_129\n        /* \"#utility.yul\":4615:4619   */\n      dup3\n        /* \"#utility.yul\":4601:4613   */\n      dup3\n        /* \"#utility.yul\":4547:4620   */\n      tag_52\n      jump\t// in\n    tag_129:\n        /* \"#utility.yul\":4539:4620   */\n      swap2\n      pop\n        /* \"#utility.yul\":4396:4631   */\n      pop\n        /* \"#utility.yul\":4716:4720   */\n      0x20\n        /* \"#utility.yul\":4709:4714   */\n      dup4\n        /* \"#utility.yul\":4705:4721   */\n      add\n        /* \"#utility.yul\":4699:4722   */\n      mload\n        /* \"#utility.yul\":4769:4772   */\n      dup5\n        /* \"#utility.yul\":4763:4767   */\n      dup3\n        /* \"#utility.yul\":4759:4773   */\n      sub\n        /* \"#utility.yul\":4752:4756   */\n      0x20\n        /* \"#utility.yul\":4747:4750   */\n      dup7\n        /* \"#utility.yul\":4743:4757   */\n      add\n        /* \"#utility.yul\":4736:4774   */\n      mstore\n        /* \"#utility.yul\":4795:4868   */\n      tag_130\n        /* \"#utility.yul\":4863:4867   */\n      dup3\n        /* \"#utility.yul\":4849:4861   */\n      dup3\n        /* \"#utility.yul\":4795:4868   */\n      tag_52\n      jump\t// in\n    tag_130:\n        /* \"#utility.yul\":4787:4868   */\n      swap2\n      pop\n        /* \"#utility.yul\":4641:4879   */\n      pop\n        /* \"#utility.yul\":4962:4966   */\n      0x40\n        /* \"#utility.yul\":4955:4960   */\n      dup4\n        /* \"#utility.yul\":4951:4967   */\n      add\n        /* \"#utility.yul\":4945:4968   */\n      mload\n        /* \"#utility.yul\":4981:5044   */\n      tag_131\n        /* \"#utility.yul\":5038:5042   */\n      0x40\n        /* \"#utility.yul\":5033:5036   */\n      dup7\n        /* \"#utility.yul\":5029:5043   */\n      add\n        /* \"#utility.yul\":5015:5027   */\n      dup3\n        /* \"#utility.yul\":4981:5044   */\n      tag_54\n      jump\t// in\n    tag_131:\n        /* \"#utility.yul\":4889:5054   */\n      pop\n        /* \"#utility.yul\":5143:5147   */\n      0x60\n        /* \"#utility.yul\":5136:5141   */\n      dup4\n        /* \"#utility.yul\":5132:5148   */\n      add\n        /* \"#utility.yul\":5126:5149   */\n      mload\n        /* \"#utility.yul\":5162:5225   */\n      tag_132\n        /* \"#utility.yul\":5219:5223   */\n      0x60\n        /* \"#utility.yul\":5214:5217   */\n      dup7\n        /* \"#utility.yul\":5210:5224   */\n      add\n        /* \"#utility.yul\":5196:5208   */\n      dup3\n        /* \"#utility.yul\":5162:5225   */\n      tag_57\n      jump\t// in\n    tag_132:\n        /* \"#utility.yul\":5064:5235   */\n      pop\n        /* \"#utility.yul\":5252:5256   */\n      dup1\n        /* \"#utility.yul\":5245:5256   */\n      swap2\n      pop\n        /* \"#utility.yul\":4350:5262   */\n      pop\n        /* \"#utility.yul\":4246:5262   */\n      swap3\n      swap2\n      pop\n      pop\n      jump\t// out\n        /* \"#utility.yul\":5268:5504   */\n    tag_59:\n        /* \"#utility.yul\":5377:5387   */\n      0x00\n        /* \"#utility.yul\":5412:5498   */\n      tag_134\n        /* \"#utility.yul\":5494:5497   */\n      dup4\n        /* \"#utility.yul\":5486:5492   */\n      dup4\n        /* \"#utility.yul\":5412:5498   */\n      tag_58\n      jump\t// in\n    tag_134:\n        /* \"#utility.yul\":5398:5498   */\n      swap1\n      pop\n        /* \"#utility.yul\":5268:5504   */\n      swap3\n      swap2\n      pop\n      pop\n      jump\t// out\n        /* \"#utility.yul\":5510:5643   */\n    tag_60:\n        /* \"#utility.yul\":5600:5604   */\n      0x00\n        /* \"#utility.yul\":5632:5636   */\n      0x20\n        /* \"#utility.yul\":5627:5630   */\n      dup3\n        /* \"#utility.yul\":5623:5637   */\n      add\n        /* \"#utility.yul\":5615:5637   */\n      swap1\n      pop\n        /* \"#utility.yul\":5510:5643   */\n      swap2\n      swap1\n      pop\n      jump\t// out\n        /* \"#utility.yul\":5697:6768   */\n    tag_61:\n        /* \"#utility.yul\":5856:5859   */\n      0x00\n        /* \"#utility.yul\":5885:5959   */\n      tag_137\n        /* \"#utility.yul\":5953:5958   */\n      dup3\n        /* \"#utility.yul\":5885:5959   */\n      tag_45\n      jump\t// in\n    tag_137:\n        /* \"#utility.yul\":5975:6081   */\n      tag_138\n        /* \"#utility.yul\":6074:6080   */\n      dup2\n        /* \"#utility.yul\":6069:6072   */\n      dup6\n        /* \"#utility.yul\":5975:6081   */\n      tag_46\n      jump\t// in\n    tag_138:\n        /* \"#utility.yul\":5968:6081   */\n      swap4\n      pop\n        /* \"#utility.yul\":6107:6110   */\n      dup4\n        /* \"#utility.yul\":6152:6156   */\n      0x20\n        /* \"#utility.yul\":6144:6150   */\n      dup3\n        /* \"#utility.yul\":6140:6157   */\n      mul\n        /* \"#utility.yul\":6135:6138   */\n      dup6\n        /* \"#utility.yul\":6131:6158   */\n      add\n        /* \"#utility.yul\":6182:6258   */\n      tag_139\n        /* \"#utility.yul\":6252:6257   */\n      dup6\n        /* \"#utility.yul\":6182:6258   */\n      tag_47\n      jump\t// in\n    tag_139:\n        /* \"#utility.yul\":6281:6288   */\n      dup1\n        /* \"#utility.yul\":6312:6313   */\n      0x00\n        /* \"#utility.yul\":6297:6723   */\n    tag_140:\n        /* \"#utility.yul\":6322:6328   */\n      dup6\n        /* \"#utility.yul\":6319:6320   */\n      dup2\n        /* \"#utility.yul\":6316:6329   */\n      lt\n        /* \"#utility.yul\":6297:6723   */\n      iszero\n      tag_142\n      jumpi\n        /* \"#utility.yul\":6393:6402   */\n      dup5\n        /* \"#utility.yul\":6387:6391   */\n      dup5\n        /* \"#utility.yul\":6383:6403   */\n      sub\n        /* \"#utility.yul\":6378:6381   */\n      dup10\n        /* \"#utility.yul\":6371:6404   */\n      mstore\n        /* \"#utility.yul\":6444:6450   */\n      dup2\n        /* \"#utility.yul\":6438:6451   */\n      mload\n        /* \"#utility.yul\":6472:6576   */\n      tag_143\n        /* \"#utility.yul\":6571:6575   */\n      dup6\n        /* \"#utility.yul\":6556:6569   */\n      dup3\n        /* \"#utility.yul\":6472:6576   */\n      tag_59\n      jump\t// in\n    tag_143:\n        /* \"#utility.yul\":6464:6576   */\n      swap5\n      pop\n        /* \"#utility.yul\":6599:6679   */\n      tag_144\n        /* \"#utility.yul\":6672:6678   */\n      dup4\n        /* \"#utility.yul\":6599:6679   */\n      tag_60\n      jump\t// in\n    tag_144:\n        /* \"#utility.yul\":6589:6679   */\n      swap3\n      pop\n        /* \"#utility.yul\":6708:6712   */\n      0x20\n        /* \"#utility.yul\":6703:6706   */\n      dup11\n        /* \"#utility.yul\":6699:6713   */\n      add\n        /* \"#utility.yul\":6692:6713   */\n      swap10\n      pop\n        /* \"#utility.yul\":6357:6723   */\n      pop\n        /* \"#utility.yul\":6344:6345   */\n      0x01\n        /* \"#utility.yul\":6341:6342   */\n      dup2\n        /* \"#utility.yul\":6337:6346   */\n      add\n        /* \"#utility.yul\":6332:6346   */\n      swap1\n      pop\n        /* \"#utility.yul\":6297:6723   */\n      jump(tag_140)\n    tag_142:\n        /* \"#utility.yul\":6301:6315   */\n      pop\n        /* \"#utility.yul\":6739:6743   */\n      dup3\n        /* \"#utility.yul\":6732:6743   */\n      swap8\n      pop\n        /* \"#utility.yul\":6759:6762   */\n      dup8\n        /* \"#utility.yul\":6752:6762   */\n      swap6\n      pop\n        /* \"#utility.yul\":5861:6768   */\n      pop\n      pop\n      pop\n      pop\n      pop\n        /* \"#utility.yul\":5697:6768   */\n      swap3\n      swap2\n      pop\n      pop\n      jump\t// out\n        /* \"#utility.yul\":6774:7227   */\n    tag_12:\n        /* \"#utility.yul\":6957:6961   */\n      0x00\n        /* \"#utility.yul\":6995:6997   */\n      0x20\n        /* \"#utility.yul\":6984:6993   */\n      dup3\n        /* \"#utility.yul\":6980:6998   */\n      add\n        /* \"#utility.yul\":6972:6998   */\n      swap1\n      pop\n        /* \"#utility.yul\":7044:7053   */\n      dup2\n        /* \"#utility.yul\":7038:7042   */\n      dup2\n        /* \"#utility.yul\":7034:7054   */\n      sub\n        /* \"#utility.yul\":7030:7031   */\n      0x00\n        /* \"#utility.yul\":7019:7028   */\n      dup4\n        /* \"#utility.yul\":7015:7032   */\n      add\n        /* \"#utility.yul\":7008:7055   */\n      mstore\n        /* \"#utility.yul\":7072:7220   */\n      tag_146\n        /* \"#utility.yul\":7215:7219   */\n      dup2\n        /* \"#utility.yul\":7206:7212   */\n      dup5\n        /* \"#utility.yul\":7072:7220   */\n      tag_61\n      jump\t// in\n    tag_146:\n        /* \"#utility.yul\":7064:7220   */\n      swap1\n      pop\n        /* \"#utility.yul\":6774:7227   */\n      swap3\n      swap2\n      pop\n      pop\n      jump\t// out\n        /* \"#utility.yul\":7233:7402   */\n    tag_62:\n        /* \"#utility.yul\":7317:7328   */\n      0x00\n        /* \"#utility.yul\":7351:7357   */\n      dup3\n        /* \"#utility.yul\":7346:7349   */\n      dup3\n        /* \"#utility.yul\":7339:7358   */\n      mstore\n        /* \"#utility.yul\":7391:7395   */\n      0x20\n        /* \"#utility.yul\":7386:7389   */\n      dup3\n        /* \"#utility.yul\":7382:7396   */\n      add\n        /* \"#utility.yul\":7367:7396   */\n      swap1\n      pop\n        /* \"#utility.yul\":7233:7402   */\n      swap3\n      swap2\n      pop\n      pop\n      jump\t// out\n        /* \"#utility.yul\":7408:7585   */\n    tag_63:\n        /* \"#utility.yul\":7548:7577   */\n      0x506c6561736520706179206d6f7265207468616e20302e314554480000000000\n        /* \"#utility.yul\":7544:7545   */\n      0x00\n        /* \"#utility.yul\":7536:7542   */\n      dup3\n        /* \"#utility.yul\":7532:7546   */\n      add\n        /* \"#utility.yul\":7525:7578   */\n      mstore\n        /* \"#utility.yul\":7408:7585   */\n      pop\n      jump\t// out\n        /* \"#utility.yul\":7591:7957   */\n    tag_64:\n        /* \"#utility.yul\":7733:7736   */\n      0x00\n        /* \"#utility.yul\":7754:7821   */\n      tag_150\n        /* \"#utility.yul\":7818:7820   */\n      0x1b\n        /* \"#utility.yul\":7813:7816   */\n      dup4\n        /* \"#utility.yul\":7754:7821   */\n      tag_62\n      jump\t// in\n    tag_150:\n        /* \"#utility.yul\":7747:7821   */\n      swap2\n      pop\n        /* \"#utility.yul\":7830:7923   */\n      tag_151\n        /* \"#utility.yul\":7919:7922   */\n      dup3\n        /* \"#utility.yul\":7830:7923   */\n      tag_63\n      jump\t// in\n    tag_151:\n        /* \"#utility.yul\":7948:7950   */\n      0x20\n        /* \"#utility.yul\":7943:7946   */\n      dup3\n        /* \"#utility.yul\":7939:7951   */\n      add\n        /* \"#utility.yul\":7932:7951   */\n      swap1\n      pop\n        /* \"#utility.yul\":7591:7957   */\n      swap2\n      swap1\n      pop\n      jump\t// out\n        /* \"#utility.yul\":7963:8382   */\n    tag_16:\n        /* \"#utility.yul\":8129:8133   */\n      0x00\n        /* \"#utility.yul\":8167:8169   */\n      0x20\n        /* \"#utility.yul\":8156:8165   */\n      dup3\n        /* \"#utility.yul\":8152:8170   */\n      add\n        /* \"#utility.yul\":8144:8170   */\n      swap1\n      pop\n        /* \"#utility.yul\":8216:8225   */\n      dup2\n        /* \"#utility.yul\":8210:8214   */\n      dup2\n        /* \"#utility.yul\":8206:8226   */\n      sub\n        /* \"#utility.yul\":8202:8203   */\n      0x00\n        /* \"#utility.yul\":8191:8200   */\n      dup4\n        /* \"#utility.yul\":8187:8204   */\n      add\n        /* \"#utility.yul\":8180:8227   */\n      mstore\n        /* \"#utility.yul\":8244:8375   */\n      tag_153\n        /* \"#utility.yul\":8370:8374   */\n      dup2\n        /* \"#utility.yul\":8244:8375   */\n      tag_64\n      jump\t// in\n    tag_153:\n        /* \"#utility.yul\":8236:8375   */\n      swap1\n      pop\n        /* \"#utility.yul\":7963:8382   */\n      swap2\n      swap1\n      pop\n      jump\t// out\n        /* \"#utility.yul\":8388:8568   */\n    tag_65:\n        /* \"#utility.yul\":8436:8513   */\n      0x4e487b7100000000000000000000000000000000000000000000000000000000\n        /* \"#utility.yul\":8433:8434   */\n      0x00\n        /* \"#utility.yul\":8426:8514   */\n      mstore\n        /* \"#utility.yul\":8533:8537   */\n      0x41\n        /* \"#utility.yul\":8530:8531   */\n      0x04\n        /* \"#utility.yul\":8523:8538   */\n      mstore\n        /* \"#utility.yul\":8557:8561   */\n      0x24\n        /* \"#utility.yul\":8554:8555   */\n      0x00\n        /* \"#utility.yul\":8547:8562   */\n      revert\n        /* \"#utility.yul\":8574:8754   */\n    tag_66:\n        /* \"#utility.yul\":8622:8699   */\n      0x4e487b7100000000000000000000000000000000000000000000000000000000\n        /* \"#utility.yul\":8619:8620   */\n      0x00\n        /* \"#utility.yul\":8612:8700   */\n      mstore\n        /* \"#utility.yul\":8719:8723   */\n      0x22\n        /* \"#utility.yul\":8716:8717   */\n      0x04\n        /* \"#utility.yul\":8709:8724   */\n      mstore\n        /* \"#utility.yul\":8743:8747   */\n      0x24\n        /* \"#utility.yul\":8740:8741   */\n      0x00\n        /* \"#utility.yul\":8733:8748   */\n      revert\n        /* \"#utility.yul\":8760:9080   */\n    tag_28:\n        /* \"#utility.yul\":8804:8810   */\n      0x00\n        /* \"#utility.yul\":8841:8842   */\n      0x02\n        /* \"#utility.yul\":8835:8839   */\n      dup3\n        /* \"#utility.yul\":8831:8843   */\n      div\n        /* \"#utility.yul\":8821:8843   */\n      swap1\n      pop\n        /* \"#utility.yul\":8888:8889   */\n      0x01\n        /* \"#utility.yul\":8882:8886   */\n      dup3\n        /* \"#utility.yul\":8878:8890   */\n      and\n        /* \"#utility.yul\":8909:8927   */\n      dup1\n        /* \"#utility.yul\":8899:8980   */\n      tag_157\n      jumpi\n        /* \"#utility.yul\":8965:8969   */\n      0x7f\n        /* \"#utility.yul\":8957:8963   */\n      dup3\n        /* \"#utility.yul\":8953:8970   */\n      and\n        /* \"#utility.yul\":8943:8970   */\n      swap2\n      pop\n        /* \"#utility.yul\":8899:8980   */\n    tag_157:\n        /* \"#utility.yul\":9027:9029   */\n      0x20\n        /* \"#utility.yul\":9019:9025   */\n      dup3\n        /* \"#utility.yul\":9016:9030   */\n      lt\n        /* \"#utility.yul\":8996:9014   */\n      dup2\n        /* \"#utility.yul\":8993:9031   */\n      sub\n        /* \"#utility.yul\":8990:9074   */\n      tag_158\n      jumpi\n        /* \"#utility.yul\":9046:9064   */\n      tag_159\n      tag_66\n      jump\t// in\n    tag_159:\n        /* \"#utility.yul\":8990:9074   */\n    tag_158:\n        /* \"#utility.yul\":8811:9080   */\n      pop\n        /* \"#utility.yul\":8760:9080   */\n      swap2\n      swap1\n      pop\n      jump\t// out\n        /* \"#utility.yul\":9086:9227   */\n    tag_67:\n        /* \"#utility.yul\":9135:9139   */\n      0x00\n        /* \"#utility.yul\":9158:9161   */\n      dup2\n        /* \"#utility.yul\":9150:9161   */\n      swap1\n      pop\n        /* \"#utility.yul\":9181:9184   */\n      dup2\n        /* \"#utility.yul\":9178:9179   */\n      0x00\n        /* \"#utility.yul\":9171:9185   */\n      mstore\n        /* \"#utility.yul\":9215:9219   */\n      0x20\n        /* \"#utility.yul\":9212:9213   */\n      0x00\n        /* \"#utility.yul\":9202:9220   */\n      keccak256\n        /* \"#utility.yul\":9194:9220   */\n      swap1\n      pop\n        /* \"#utility.yul\":9086:9227   */\n      swap2\n      swap1\n      pop\n      jump\t// out\n        /* \"#utility.yul\":9233:9326   */\n    tag_68:\n        /* \"#utility.yul\":9270:9276   */\n      0x00\n        /* \"#utility.yul\":9317:9319   */\n      0x20\n        /* \"#utility.yul\":9312:9314   */\n      0x1f\n        /* \"#utility.yul\":9305:9310   */\n      dup4\n        /* \"#utility.yul\":9301:9315   */\n      add\n        /* \"#utility.yul\":9297:9320   */\n      div\n        /* \"#utility.yul\":9287:9320   */\n      swap1\n      pop\n        /* \"#utility.yul\":9233:9326   */\n      swap2\n      swap1\n      pop\n      jump\t// out\n        /* \"#utility.yul\":9332:9439   */\n    tag_69:\n        /* \"#utility.yul\":9376:9384   */\n      0x00\n        /* \"#utility.yul\":9426:9431   */\n      dup3\n        /* \"#utility.yul\":9420:9424   */\n      dup3\n        /* \"#utility.yul\":9416:9432   */\n      shl\n        /* \"#utility.yul\":9395:9432   */\n      swap1\n      pop\n        /* \"#utility.yul\":9332:9439   */\n      swap3\n      swap2\n      pop\n      pop\n      jump\t// out\n        /* \"#utility.yul\":9445:9838   */\n    tag_70:\n        /* \"#utility.yul\":9514:9520   */\n      0x00\n        /* \"#utility.yul\":9564:9565   */\n      0x08\n        /* \"#utility.yul\":9552:9562   */\n      dup4\n        /* \"#utility.yul\":9548:9566   */\n      mul\n        /* \"#utility.yul\":9587:9684   */\n      tag_164\n        /* \"#utility.yul\":9617:9683   */\n      0xffffffffffffffffffffffffffffffffffffffffffffffffffffffffffffffff\n        /* \"#utility.yul\":9606:9615   */\n      dup3\n        /* \"#utility.yul\":9587:9684   */\n      tag_69\n      jump\t// in\n    tag_164:\n        /* \"#utility.yul\":9705:9744   */\n      tag_165\n        /* \"#utility.yul\":9735:9743   */\n      dup7\n        /* \"#utility.yul\":9724:9733   */\n      dup4\n        /* \"#utility.yul\":9705:9744   */\n      tag_69\n      jump\t// in\n    tag_165:\n        /* \"#utility.yul\":9693:9744   */\n      swap6\n      pop\n        /* \"#utility.yul\":9777:9781   */\n      dup1\n        /* \"#utility.yul\":9773:9782   */\n      not\n        /* \"#utility.yul\":9766:9771   */\n      dup5\n        /* \"#utility.yul\":9762:9783   */\n      and\n        /* \"#utility.yul\":9753:9783   */\n      swap4\n      pop\n        /* \"#utility.yul\":9826:9830   */\n      dup1\n        /* \"#utility.yul\":9816:9824   */\n      dup7\n        /* \"#utility.yul\":9812:9831   */\n      and\n        /* \"#utility.yul\":9805:9810   */\n      dup5\n        /* \"#utility.yul\":9802:9832   */\n      or\n        /* \"#utility.yul\":9792:9832   */\n      swap3\n      pop\n        /* \"#utility.yul\":9521:9838   */\n      pop\n      pop\n        /* \"#utility.yul\":9445:9838   */\n      swap4\n      swap3\n      pop\n      pop\n      pop\n      jump\t// out\n        /* \"#utility.yul\":9844:9904   */\n    tag_71:\n        /* \"#utility.yul\":9872:9875   */\n      0x00\n        /* \"#utility.yul\":9893:9898   */\n      dup2\n        /* \"#utility.yul\":9886:9898   */\n      swap1\n      pop\n        /* \"#utility.yul\":9844:9904   */\n      swap2\n      swap1\n      pop\n      jump\t// out\n        /* \"#utility.yul\":9910:10052   */\n    tag_72:\n        /* \"#utility.yul\":9960:9969   */\n      0x00\n        /* \"#utility.yul\":9993:10046   */\n      tag_168\n        /* \"#utility.yul\":10011:10045   */\n      tag_169\n        /* \"#utility.yul\":10020:10044   */\n      tag_170\n        /* \"#utility.yul\":10038:10043   */\n      dup5\n        /* \"#utility.yul\":10020:10044   */\n      tag_53\n      jump\t// in\n    tag_170:\n        /* \"#utility.yul\":10011:10045   */\n      tag_71\n      jump\t// in\n    tag_169:\n        /* \"#utility.yul\":9993:10046   */\n      tag_53\n      jump\t// in\n    tag_168:\n        /* \"#utility.yul\":9980:10046   */\n      swap1\n      pop\n        /* \"#utility.yul\":9910:10052   */\n      swap2\n      swap1\n      pop\n      jump\t// out\n        /* \"#utility.yul\":10058:10133   */\n    tag_73:\n        /* \"#utility.yul\":10101:10104   */\n      0x00\n        /* \"#utility.yul\":10122:10127   */\n      dup2\n        /* \"#utility.yul\":10115:10127   */\n      swap1\n      pop\n        /* \"#utility.yul\":10058:10133   */\n      swap2\n      swap1\n      pop\n      jump\t// out\n        /* \"#utility.yul\":10139:10408   */\n    tag_74:\n        /* \"#utility.yul\":10249:10288   */\n      tag_173\n        /* \"#utility.yul\":10280:10287   */\n      dup4\n        /* \"#utility.yul\":10249:10288   */\n      tag_72\n      jump\t// in\n    tag_173:\n        /* \"#utility.yul\":10310:10401   */\n      tag_174\n        /* \"#utility.yul\":10359:10400   */\n      tag_175\n        /* \"#utility.yul\":10383:10399   */\n      dup3\n        /* \"#utility.yul\":10359:10400   */\n      tag_73\n      jump\t// in\n    tag_175:\n        /* \"#utility.yul\":10351:10357   */\n      dup5\n        /* \"#utility.yul\":10344:10348   */\n      dup5\n        /* \"#utility.yul\":10338:10349   */\n      sload\n        /* \"#utility.yul\":10310:10401   */\n      tag_70\n      jump\t// in\n    tag_174:\n        /* \"#utility.yul\":10304:10308   */\n      dup3\n        /* \"#utility.yul\":10297:10402   */\n      sstore\n        /* \"#utility.yul\":10215:10408   */\n      pop\n        /* \"#utility.yul\":10139:10408   */\n      pop\n      pop\n      pop\n      jump\t// out\n        /* \"#utility.yul\":10414:10487   */\n    tag_75:\n        /* \"#utility.yul\":10459:10462   */\n      0x00\n        /* \"#utility.yul\":10414:10487   */\n      swap1\n      jump\t// out\n        /* \"#utility.yul\":10493:10682   */\n    tag_76:\n        /* \"#utility.yul\":10570:10602   */\n      tag_178\n      tag_75\n      jump\t// in\n    tag_178:\n        /* \"#utility.yul\":10611:10676   */\n      tag_179\n        /* \"#utility.yul\":10669:10675   */\n      dup2\n        /* \"#utility.yul\":10661:10667   */\n      dup5\n        /* \"#utility.yul\":10655:10659   */\n      dup5\n        /* \"#utility.yul\":10611:10676   */\n      tag_74\n      jump\t// in\n    tag_179:\n        /* \"#utility.yul\":10546:10682   */\n      pop\n        /* \"#utility.yul\":10493:10682   */\n      pop\n      pop\n      jump\t// out\n        /* \"#utility.yul\":10688:10874   */\n    tag_77:\n        /* \"#utility.yul\":10748:10868   */\n    tag_181:\n        /* \"#utility.yul\":10765:10768   */\n      dup2\n        /* \"#utility.yul\":10758:10763   */\n      dup2\n        /* \"#utility.yul\":10755:10769   */\n      lt\n        /* \"#utility.yul\":10748:10868   */\n      iszero\n      tag_183\n      jumpi\n        /* \"#utility.yul\":10819:10858   */\n      tag_184\n        /* \"#utility.yul\":10856:10857   */\n      0x00\n        /* \"#utility.yul\":10849:10854   */\n      dup3\n        /* \"#utility.yul\":10819:10858   */\n      tag_76\n      jump\t// in\n    tag_184:\n        /* \"#utility.yul\":10792:10793   */\n      0x01\n        /* \"#utility.yul\":10785:10790   */\n      dup2\n        /* \"#utility.yul\":10781:10794   */\n      add\n        /* \"#utility.yul\":10772:10794   */\n      swap1\n      pop\n        /* \"#utility.yul\":10748:10868   */\n      jump(tag_181)\n    tag_183:\n        /* \"#utility.yul\":10688:10874   */\n      pop\n      pop\n      jump\t// out\n        /* \"#utility.yul\":10880:11423   */\n    tag_78:\n        /* \"#utility.yul\":10981:10983   */\n      0x1f\n        /* \"#utility.yul\":10976:10979   */\n      dup3\n        /* \"#utility.yul\":10973:10984   */\n      gt\n        /* \"#utility.yul\":10970:11416   */\n      iszero\n      tag_186\n      jumpi\n        /* \"#utility.yul\":11015:11053   */\n      tag_187\n        /* \"#utility.yul\":11047:11052   */\n      dup2\n        /* \"#utility.yul\":11015:11053   */\n      tag_67\n      jump\t// in\n    tag_187:\n        /* \"#utility.yul\":11099:11128   */\n      tag_188\n        /* \"#utility.yul\":11117:11127   */\n      dup5\n        /* \"#utility.yul\":11099:11128   */\n      tag_68\n      jump\t// in\n    tag_188:\n        /* \"#utility.yul\":11089:11097   */\n      dup2\n        /* \"#utility.yul\":11085:11129   */\n      add\n        /* \"#utility.yul\":11282:11284   */\n      0x20\n        /* \"#utility.yul\":11270:11280   */\n      dup6\n        /* \"#utility.yul\":11267:11285   */\n      lt\n        /* \"#utility.yul\":11264:11313   */\n      iszero\n      tag_189\n      jumpi\n        /* \"#utility.yul\":11303:11311   */\n      dup2\n        /* \"#utility.yul\":11288:11311   */\n      swap1\n      pop\n        /* \"#utility.yul\":11264:11313   */\n    tag_189:\n        /* \"#utility.yul\":11326:11406   */\n      tag_190\n        /* \"#utility.yul\":11382:11404   */\n      tag_191\n        /* \"#utility.yul\":11400:11403   */\n      dup6\n        /* \"#utility.yul\":11382:11404   */\n      tag_68\n      jump\t// in\n    tag_191:\n        /* \"#utility.yul\":11372:11380   */\n      dup4\n        /* \"#utility.yul\":11368:11405   */\n      add\n        /* \"#utility.yul\":11355:11366   */\n      dup3\n        /* \"#utility.yul\":11326:11406   */\n      tag_77\n      jump\t// in\n    tag_190:\n        /* \"#utility.yul\":10985:11416   */\n      pop\n      pop\n        /* \"#utility.yul\":10970:11416   */\n    tag_186:\n        /* \"#utility.yul\":10880:11423   */\n      pop\n      pop\n      pop\n      jump\t// out\n        /* \"#utility.yul\":11429:11546   */\n    tag_79:\n        /* \"#utility.yul\":11483:11491   */\n      0x00\n        /* \"#utility.yul\":11533:11538   */\n      dup3\n        /* \"#utility.yul\":11527:11531   */\n      dup3\n        /* \"#utility.yul\":11523:11539   */\n      shr\n        /* \"#utility.yul\":11502:11539   */\n      swap1\n      pop\n        /* \"#utility.yul\":11429:11546   */\n      swap3\n      swap2\n      pop\n      pop\n      jump\t// out\n        /* \"#utility.yul\":11552:11721   */\n    tag_80:\n        /* \"#utility.yul\":11596:11602   */\n      0x00\n        /* \"#utility.yul\":11629:11680   */\n      tag_194\n        /* \"#utility.yul\":11677:11678   */\n      0x00\n        /* \"#utility.yul\":11673:11679   */\n      not\n        /* \"#utility.yul\":11665:11670   */\n      dup5\n        /* \"#utility.yul\":11662:11663   */\n      0x08\n        /* \"#utility.yul\":11658:11671   */\n      mul\n        /* \"#utility.yul\":11629:11680   */\n      tag_79\n      jump\t// in\n    tag_194:\n        /* \"#utility.yul\":11625:11681   */\n      not\n        /* \"#utility.yul\":11710:11714   */\n      dup1\n        /* \"#utility.yul\":11704:11708   */\n      dup4\n        /* \"#utility.yul\":11700:11715   */\n      and\n        /* \"#utility.yul\":11690:11715   */\n      swap2\n      pop\n        /* \"#utility.yul\":11603:11721   */\n      pop\n        /* \"#utility.yul\":11552:11721   */\n      swap3\n      swap2\n      pop\n      pop\n      jump\t// out\n        /* \"#utility.yul\":11726:12021   */\n    tag_81:\n        /* \"#utility.yul\":11802:11806   */\n      0x00\n        /* \"#utility.yul\":11948:11977   */\n      tag_196\n        /* \"#utility.yul\":11973:11976   */\n      dup4\n        /* \"#utility.yul\":11967:11971   */\n      dup4\n        /* \"#utility.yul\":11948:11977   */\n      tag_80\n      jump\t// in\n    tag_196:\n        /* \"#utility.yul\":11940:11977   */\n      swap2\n      pop\n        /* \"#utility.yul\":12010:12013   */\n      dup3\n        /* \"#utility.yul\":12007:12008   */\n      0x02\n        /* \"#utility.yul\":12003:12014   */\n      mul\n        /* \"#utility.yul\":11997:12001   */\n      dup3\n        /* \"#utility.yul\":11994:12015   */\n      or\n        /* \"#utility.yul\":11986:12015   */\n      swap1\n      pop\n        /* \"#utility.yul\":11726:12021   */\n      swap3\n      swap2\n      pop\n      pop\n      jump\t// out\n        /* \"#utility.yul\":12026:13421   */\n    tag_21:\n        /* \"#utility.yul\":12143:12180   */\n      tag_198\n        /* \"#utility.yul\":12176:12179   */\n      dup3\n        /* \"#utility.yul\":12143:12180   */\n      tag_48\n      jump\t// in\n    tag_198:\n        /* \"#utility.yul\":12245:12263   */\n      0xffffffffffffffff\n        /* \"#utility.yul\":12237:12243   */\n      dup2\n        /* \"#utility.yul\":12234:12264   */\n      gt\n        /* \"#utility.yul\":12231:12287   */\n      iszero\n      tag_199\n      jumpi\n        /* \"#utility.yul\":12267:12285   */\n      tag_200\n      tag_65\n      jump\t// in\n    tag_200:\n        /* \"#utility.yul\":12231:12287   */\n    tag_199:\n        /* \"#utility.yul\":12311:12349   */\n      tag_201\n        /* \"#utility.yul\":12343:12347   */\n      dup3\n        /* \"#utility.yul\":12337:12348   */\n      sload\n        /* \"#utility.yul\":12311:12349   */\n      tag_28\n      jump\t// in\n    tag_201:\n        /* \"#utility.yul\":12396:12463   */\n      tag_202\n        /* \"#utility.yul\":12456:12462   */\n      dup3\n        /* \"#utility.yul\":12448:12454   */\n      dup3\n        /* \"#utility.yul\":12442:12446   */\n      dup6\n        /* \"#utility.yul\":12396:12463   */\n      tag_78\n      jump\t// in\n    tag_202:\n        /* \"#utility.yul\":12490:12491   */\n      0x00\n        /* \"#utility.yul\":12514:12518   */\n      0x20\n        /* \"#utility.yul\":12501:12518   */\n      swap1\n      pop\n        /* \"#utility.yul\":12546:12548   */\n      0x1f\n        /* \"#utility.yul\":12538:12544   */\n      dup4\n        /* \"#utility.yul\":12535:12549   */\n      gt\n        /* \"#utility.yul\":12563:12564   */\n      0x01\n        /* \"#utility.yul\":12558:13176   */\n      dup2\n      eq\n      tag_204\n      jumpi\n        /* \"#utility.yul\":13220:13221   */\n      0x00\n        /* \"#utility.yul\":13237:13243   */\n      dup5\n        /* \"#utility.yul\":13234:13311   */\n      iszero\n      tag_205\n      jumpi\n        /* \"#utility.yul\":13286:13295   */\n      dup3\n        /* \"#utility.yul\":13281:13284   */\n      dup8\n        /* \"#utility.yul\":13277:13296   */\n      add\n        /* \"#utility.yul\":13271:13297   */\n      mload\n        /* \"#utility.yul\":13262:13297   */\n      swap1\n      pop\n        /* \"#utility.yul\":13234:13311   */\n    tag_205:\n        /* \"#utility.yul\":13337:13404   */\n      tag_206\n        /* \"#utility.yul\":13397:13403   */\n      dup6\n        /* \"#utility.yul\":13390:13395   */\n      dup3\n        /* \"#utility.yul\":13337:13404   */\n      tag_81\n      jump\t// in\n    tag_206:\n        /* \"#utility.yul\":13331:13335   */\n      dup7\n        /* \"#utility.yul\":13324:13405   */\n      sstore\n        /* \"#utility.yul\":13193:13415   */\n      pop\n        /* \"#utility.yul\":12528:13415   */\n      jump(tag_203)\n        /* \"#utility.yul\":12558:13176   */\n    tag_204:\n        /* \"#utility.yul\":12610:12614   */\n      0x1f\n        /* \"#utility.yul\":12606:12615   */\n      not\n        /* \"#utility.yul\":12598:12604   */\n      dup5\n        /* \"#utility.yul\":12594:12616   */\n      and\n        /* \"#utility.yul\":12644:12681   */\n      tag_207\n        /* \"#utility.yul\":12676:12680   */\n      dup7\n        /* \"#utility.yul\":12644:12681   */\n      tag_67\n      jump\t// in\n    tag_207:\n        /* \"#utility.yul\":12703:12704   */\n      0x00\n        /* \"#utility.yul\":12717:12925   */\n    tag_208:\n        /* \"#utility.yul\":12731:12738   */\n      dup3\n        /* \"#utility.yul\":12728:12729   */\n      dup2\n        /* \"#utility.yul\":12725:12739   */\n      lt\n        /* \"#utility.yul\":12717:12925   */\n      iszero\n      tag_210\n      jumpi\n        /* \"#utility.yul\":12810:12819   */\n      dup5\n        /* \"#utility.yul\":12805:12808   */\n      dup10\n        /* \"#utility.yul\":12801:12820   */\n      add\n        /* \"#utility.yul\":12795:12821   */\n      mload\n        /* \"#utility.yul\":12787:12793   */\n      dup3\n        /* \"#utility.yul\":12780:12822   */\n      sstore\n        /* \"#utility.yul\":12861:12862   */\n      0x01\n        /* \"#utility.yul\":12853:12859   */\n      dup3\n        /* \"#utility.yul\":12849:12863   */\n      add\n        /* \"#utility.yul\":12839:12863   */\n      swap2\n      pop\n        /* \"#utility.yul\":12908:12910   */\n      0x20\n        /* \"#utility.yul\":12897:12906   */\n      dup6\n        /* \"#utility.yul\":12893:12911   */\n      add\n        /* \"#utility.yul\":12880:12911   */\n      swap5\n      pop\n        /* \"#utility.yul\":12754:12758   */\n      0x20\n        /* \"#utility.yul\":12751:12752   */\n      dup2\n        /* \"#utility.yul\":12747:12759   */\n      add\n        /* \"#utility.yul\":12742:12759   */\n      swap1\n      pop\n        /* \"#utility.yul\":12717:12925   */\n      jump(tag_208)\n    tag_210:\n        /* \"#utility.yul\":12953:12959   */\n      dup7\n        /* \"#utility.yul\":12944:12951   */\n      dup4\n        /* \"#utility.yul\":12941:12960   */\n      lt\n        /* \"#utility.yul\":12938:13117   */\n      iszero\n      tag_211\n      jumpi\n        /* \"#utility.yul\":13011:13020   */\n      dup5\n        /* \"#utility.yul\":13006:13009   */\n      dup10\n        /* \"#utility.yul\":13002:13021   */\n      add\n        /* \"#utility.yul\":12996:13022   */\n      mload\n        /* \"#utility.yul\":13054:13102   */\n      tag_212\n        /* \"#utility.yul\":13096:13100   */\n      0x1f\n        /* \"#utility.yul\":13088:13094   */\n      dup10\n        /* \"#utility.yul\":13084:13101   */\n      and\n        /* \"#utility.yul\":13073:13082   */\n      dup3\n        /* \"#utility.yul\":13054:13102   */\n      tag_80\n      jump\t// in\n    tag_212:\n        /* \"#utility.yul\":13046:13052   */\n      dup4\n        /* \"#utility.yul\":13039:13103   */\n      sstore\n        /* \"#utility.yul\":12961:13117   */\n      pop\n        /* \"#utility.yul\":12938:13117   */\n    tag_211:\n        /* \"#utility.yul\":13163:13164   */\n      0x01\n        /* \"#utility.yul\":13159:13160   */\n      0x02\n        /* \"#utility.yul\":13151:13157   */\n      dup9\n        /* \"#utility.yul\":13147:13161   */\n      mul\n        /* \"#utility.yul\":13143:13165   */\n      add\n        /* \"#utility.yul\":13137:13141   */\n      dup9\n        /* \"#utility.yul\":13130:13166   */\n      sstore\n        /* \"#utility.yul\":12565:13176   */\n      pop\n      pop\n      pop\n        /* \"#utility.yul\":12528:13415   */\n    tag_203:\n      pop\n        /* \"#utility.yul\":12118:13421   */\n      pop\n      pop\n      pop\n        /* \"#utility.yul\":12026:13421   */\n      pop\n      pop\n      jump\t// out\n\n    auxdata: 0xa264697066735822122010fffd4124607321dae04d41c79bb348df4845780964fe8aeed1366b21d21fa064736f6c63430008120033\n}\n",
				"bytecode": {
					"linkReferences": {},
					"object": "608060405234801561001057600080fd5b5033600160006101000a81548173ffffffffffffffffffffffffffffffffffffffff021916908373ffffffffffffffffffffffffffffffffffffffff160217905550610b62806100616000396000f3fe6080604052600436106100295760003560e01c8063204206e11461002e578063865c51721461004a575b600080fd5b610048600480360381019061004391906104e9565b610075565b005b34801561005657600080fd5b5061005f610297565b60405161006c9190610780565b60405180910390f35b670de0b6b3a764000034116100bf576040517f08c379a00000000000000000000000000000000000000000000000000000000081526004016100b6906107ff565b60405180910390fd5b600160009054906101000a900473ffffffffffffffffffffffffffffffffffffffff1673ffffffffffffffffffffffffffffffffffffffff166108fc349081150290604051600060405180830381858888f19350505050158015610127573d6000803e3d6000fd5b506000604051806080016040528086868080601f016020809104026020016040519081016040528093929190818152602001838380828437600081840152601f19601f82011690508083019250505050505050815260200184848080601f016020809104026020016040519081016040528093929190818152602001838380828437600081840152601f19601f8201169050808301925050505050505081526020014281526020013373ffffffffffffffffffffffffffffffffffffffff16815250908060018154018082558091505060019003906000526020600020906004020160009091909190915060008201518160000190816102279190610a5a565b50602082015181600101908161023d9190610a5a565b506040820151816002015560608201518160030160006101000a81548173ffffffffffffffffffffffffffffffffffffffff021916908373ffffffffffffffffffffffffffffffffffffffff160217905550505050505050565b60606000805480602002602001604051908101604052809291908181526020016000905b8282101561047157838290600052602060002090600402016040518060800160405290816000820180546102ee9061087d565b80601f016020809104026020016040519081016040528092919081815260200182805461031a9061087d565b80156103675780601f1061033c57610100808354040283529160200191610367565b820191906000526020600020905b81548152906001019060200180831161034a57829003601f168201915b505050505081526020016001820180546103809061087d565b80601f01602080910402602001604051908101604052809291908181526020018280546103ac9061087d565b80156103f95780601f106103ce576101008083540402835291602001916103f9565b820191906000526020600020905b8154815290600101906020018083116103dc57829003601f168201915b50505050508152602001600282015481526020016003820160009054906101000a900473ffffffffffffffffffffffffffffffffffffffff1673ffffffffffffffffffffffffffffffffffffffff1673ffffffffffffffffffffffffffffffffffffffff1681525050815260200190600101906102bb565b50505050905090565b600080fd5b600080fd5b600080fd5b600080fd5b600080fd5b60008083601f8401126104a9576104a8610484565b5b8235905067ffffffffffffffff8111156104c6576104c5610489565b5b6020830191508360018202830111156104e2576104e161048e565b5b9250929050565b600080600080604085870312156105035761050261047a565b5b600085013567ffffffffffffffff8111156105215761052061047f565b5b61052d87828801610493565b9450945050602085013567ffffffffffffffff8111156105505761054f61047f565b5b61055c87828801610493565b925092505092959194509250565b600081519050919050565b600082825260208201905092915050565b6000819050602082019050919050565b600081519050919050565b600082825260208201905092915050565b60005b838110156105d05780820151818401526020810190506105b5565b60008484015250505050565b6000601f19601f8301169050919050565b60006105f882610596565b61060281856105a1565b93506106128185602086016105b2565b61061b816105dc565b840191505092915050565b6000819050919050565b61063981610626565b82525050565b600073ffffffffffffffffffffffffffffffffffffffff82169050919050565b600061066a8261063f565b9050919050565b61067a8161065f565b82525050565b6000608083016000830151848203600086015261069d82826105ed565b915050602083015184820360208601526106b782826105ed565b91505060408301516106cc6040860182610630565b5060608301516106df6060860182610671565b508091505092915050565b60006106f68383610680565b905092915050565b6000602082019050919050565b60006107168261056a565b6107208185610575565b93508360208202850161073285610586565b8060005b8581101561076e578484038952815161074f85826106ea565b945061075a836106fe565b925060208a01995050600181019050610736565b50829750879550505050505092915050565b6000602082019050818103600083015261079a818461070b565b905092915050565b600082825260208201905092915050565b7f506c6561736520706179206d6f7265207468616e20302e314554480000000000600082015250565b60006107e9601b836107a2565b91506107f4826107b3565b602082019050919050565b60006020820190508181036000830152610818816107dc565b9050919050565b7f4e487b7100000000000000000000000000000000000000000000000000000000600052604160045260246000fd5b7f4e487b7100000000000000000000000000000000000000000000000000000000600052602260045260246000fd5b6000600282049050600182168061089557607f821691505b6020821081036108a8576108a761084e565b5b50919050565b60008190508160005260206000209050919050565b60006020601f8301049050919050565b600082821b905092915050565b6000600883026109107fffffffffffffffffffffffffffffffffffffffffffffffffffffffffffffffff826108d3565b61091a86836108d3565b95508019841693508086168417925050509392505050565b6000819050919050565b600061095761095261094d84610626565b610932565b610626565b9050919050565b6000819050919050565b6109718361093c565b61098561097d8261095e565b8484546108e0565b825550505050565b600090565b61099a61098d565b6109a5818484610968565b505050565b5b818110156109c9576109be600082610992565b6001810190506109ab565b5050565b601f821115610a0e576109df816108ae565b6109e8846108c3565b810160208510156109f7578190505b610a0b610a03856108c3565b8301826109aa565b50505b505050565b600082821c905092915050565b6000610a3160001984600802610a13565b1980831691505092915050565b6000610a4a8383610a20565b9150826002028217905092915050565b610a6382610596565b67ffffffffffffffff811115610a7c57610a7b61081f565b5b610a86825461087d565b610a918282856109cd565b600060209050601f831160018114610ac45760008415610ab2578287015190505b610abc8582610a3e565b865550610b24565b601f198416610ad2866108ae565b60005b82811015610afa57848901518255600182019150602085019450602081019050610ad5565b86831015610b175784890151610b13601f891682610a20565b8355505b6001600288020188555050505b50505050505056fea264697066735822122010fffd4124607321dae04d41c79bb348df4845780964fe8aeed1366b21d21fa064736f6c63430008120033",
					"opcodes": "PUSH1 0x80 PUSH1 0x40 MSTORE CALLVALUE DUP1 ISZERO PUSH2 0x10 JUMPI PUSH1 0x0 DUP1 REVERT JUMPDEST POP CALLER PUSH1 0x1 PUSH1 0x0 PUSH2 0x100 EXP DUP2 SLOAD DUP2 PUSH20 0xFFFFFFFFFFFFFFFFFFFFFFFFFFFFFFFFFFFFFFFF MUL NOT AND SWAP1 DUP4 PUSH20 0xFFFFFFFFFFFFFFFFFFFFFFFFFFFFFFFFFFFFFFFF AND MUL OR SWAP1 SSTORE POP PUSH2 0xB62 DUP1 PUSH2 0x61 PUSH1 0x0 CODECOPY PUSH1 0x0 RETURN INVALID PUSH1 0x80 PUSH1 0x40 MSTORE PUSH1 0x4 CALLDATASIZE LT PUSH2 0x29 JUMPI PUSH1 0x0 CALLDATALOAD PUSH1 0xE0 SHR DUP1 PUSH4 0x204206E1 EQ PUSH2 0x2E JUMPI DUP1 PUSH4 0x865C5172 EQ PUSH2 0x4A JUMPI JUMPDEST PUSH1 0x0 DUP1 REVERT JUMPDEST PUSH2 0x48 PUSH1 0x4 DUP1 CALLDATASIZE SUB DUP2 ADD SWAP1 PUSH2 0x43 SWAP2 SWAP1 PUSH2 0x4E9 JUMP JUMPDEST PUSH2 0x75 JUMP JUMPDEST STOP JUMPDEST CALLVALUE DUP1 ISZERO PUSH2 0x56 JUMPI PUSH1 0x0 DUP1 REVERT JUMPDEST POP PUSH2 0x5F PUSH2 0x297 JUMP JUMPDEST PUSH1 0x40 MLOAD PUSH2 0x6C SWAP2 SWAP1 PUSH2 0x780 JUMP JUMPDEST PUSH1 0x40 MLOAD DUP1 SWAP2 SUB SWAP1 RETURN JUMPDEST PUSH8 0xDE0B6B3A7640000 CALLVALUE GT PUSH2 0xBF JUMPI PUSH1 0x40 MLOAD PUSH32 0x8C379A000000000000000000000000000000000000000000000000000000000 DUP2 MSTORE PUSH1 0x4 ADD PUSH2 0xB6 SWAP1 PUSH2 0x7FF JUMP JUMPDEST PUSH1 0x40 MLOAD DUP1 SWAP2 SUB SWAP1 REVERT JUMPDEST PUSH1 0x1 PUSH1 0x0 SWAP1 SLOAD SWAP1 PUSH2 0x100 EXP SWAP1 DIV PUSH20 0xFFFFFFFFFFFFFFFFFFFFFFFFFFFFFFFFFFFFFFFF AND PUSH20 0xFFFFFFFFFFFFFFFFFFFFFFFFFFFFFFFFFFFFFFFF AND PUSH2 0x8FC CALLVALUE SWAP1 DUP2 ISZERO MUL SWAP1 PUSH1 0x40 MLOAD PUSH1 0x0 PUSH1 0x40 MLOAD DUP1 DUP4 SUB DUP2 DUP6 DUP9 DUP9 CALL SWAP4 POP POP POP POP ISZERO DUP1 ISZERO PUSH2 0x127 JUMPI RETURNDATASIZE PUSH1 0x0 DUP1 RETURNDATACOPY RETURNDATASIZE PUSH1 0x0 REVERT JUMPDEST POP PUSH1 0x0 PUSH1 0x40 MLOAD DUP1 PUSH1 0x80 ADD PUSH1 0x40 MSTORE DUP1 DUP7 DUP7 DUP1 DUP1 PUSH1 0x1F ADD PUSH1 0x20 DUP1 SWAP2 DIV MUL PUSH1 0x20 ADD PUSH1 0x40 MLOAD SWAP1 DUP2 ADD PUSH1 0x40 MSTORE DUP1 SWAP4 SWAP3 SWAP2 SWAP1 DUP2 DUP2 MSTORE PUSH1 0x20 ADD DUP4 DUP4 DUP1 DUP3 DUP5 CALLDATACOPY PUSH1 0x0 DUP2 DUP5 ADD MSTORE PUSH1 0x1F NOT PUSH1 0x1F DUP3 ADD AND SWAP1 POP DUP1 DUP4 ADD SWAP3 POP POP POP POP POP POP POP DUP2 MSTORE PUSH1 0x20 ADD DUP5 DUP5 DUP1 DUP1 PUSH1 0x1F ADD PUSH1 0x20 DUP1 SWAP2 DIV MUL PUSH1 0x20 ADD PUSH1 0x40 MLOAD SWAP1 DUP2 ADD PUSH1 0x40 MSTORE DUP1 SWAP4 SWAP3 SWAP2 SWAP1 DUP2 DUP2 MSTORE PUSH1 0x20 ADD DUP4 DUP4 DUP1 DUP3 DUP5 CALLDATACOPY PUSH1 0x0 DUP2 DUP5 ADD MSTORE PUSH1 0x1F NOT PUSH1 0x1F DUP3 ADD AND SWAP1 POP DUP1 DUP4 ADD SWAP3 POP POP POP POP POP POP POP DUP2 MSTORE PUSH1 0x20 ADD TIMESTAMP DUP2 MSTORE PUSH1 0x20 ADD CALLER PUSH20 0xFFFFFFFFFFFFFFFFFFFFFFFFFFFFFFFFFFFFFFFF AND DUP2 MSTORE POP SWAP1 DUP1 PUSH1 0x1 DUP2 SLOAD ADD DUP1 DUP3 SSTORE DUP1 SWAP2 POP POP PUSH1 0x1 SWAP1 SUB SWAP1 PUSH1 0x0 MSTORE PUSH1 0x20 PUSH1 0x0 KECCAK256 SWAP1 PUSH1 0x4 MUL ADD PUSH1 0x0 SWAP1 SWAP2 SWAP1 SWAP2 SWAP1 SWAP2 POP PUSH1 0x0 DUP3 ADD MLOAD DUP2 PUSH1 0x0 ADD SWAP1 DUP2 PUSH2 0x227 SWAP2 SWAP1 PUSH2 0xA5A JUMP JUMPDEST POP PUSH1 0x20 DUP3 ADD MLOAD DUP2 PUSH1 0x1 ADD SWAP1 DUP2 PUSH2 0x23D SWAP2 SWAP1 PUSH2 0xA5A JUMP JUMPDEST POP PUSH1 0x40 DUP3 ADD MLOAD DUP2 PUSH1 0x2 ADD SSTORE PUSH1 0x60 DUP3 ADD MLOAD DUP2 PUSH1 0x3 ADD PUSH1 0x0 PUSH2 0x100 EXP DUP2 SLOAD DUP2 PUSH20 0xFFFFFFFFFFFFFFFFFFFFFFFFFFFFFFFFFFFFFFFF MUL NOT AND SWAP1 DUP4 PUSH20 0xFFFFFFFFFFFFFFFFFFFFFFFFFFFFFFFFFFFFFFFF AND MUL OR SWAP1 SSTORE POP POP POP POP POP POP POP JUMP JUMPDEST PUSH1 0x60 PUSH1 0x0 DUP1 SLOAD DUP1 PUSH1 0x20 MUL PUSH1 0x20 ADD PUSH1 0x40 MLOAD SWAP1 DUP2 ADD PUSH1 0x40 MSTORE DUP1 SWAP3 SWAP2 SWAP1 DUP2 DUP2 MSTORE PUSH1 0x20 ADD PUSH1 0x0 SWAP1 JUMPDEST DUP3 DUP3 LT ISZERO PUSH2 0x471 JUMPI DUP4 DUP3 SWAP1 PUSH1 0x0 MSTORE PUSH1 0x20 PUSH1 0x0 KECCAK256 SWAP1 PUSH1 0x4 MUL ADD PUSH1 0x40 MLOAD DUP1 PUSH1 0x80 ADD PUSH1 0x40 MSTORE SWAP1 DUP2 PUSH1 0x0 DUP3 ADD DUP1 SLOAD PUSH2 0x2EE SWAP1 PUSH2 0x87D JUMP JUMPDEST DUP1 PUSH1 0x1F ADD PUSH1 0x20 DUP1 SWAP2 DIV MUL PUSH1 0x20 ADD PUSH1 0x40 MLOAD SWAP1 DUP2 ADD PUSH1 0x40 MSTORE DUP1 SWAP3 SWAP2 SWAP1 DUP2 DUP2 MSTORE PUSH1 0x20 ADD DUP3 DUP1 SLOAD PUSH2 0x31A SWAP1 PUSH2 0x87D JUMP JUMPDEST DUP1 ISZERO PUSH2 0x367 JUMPI DUP1 PUSH1 0x1F LT PUSH2 0x33C JUMPI PUSH2 0x100 DUP1 DUP4 SLOAD DIV MUL DUP4 MSTORE SWAP2 PUSH1 0x20 ADD SWAP2 PUSH2 0x367 JUMP JUMPDEST DUP3 ADD SWAP2 SWAP1 PUSH1 0x0 MSTORE PUSH1 0x20 PUSH1 0x0 KECCAK256 SWAP1 JUMPDEST DUP2 SLOAD DUP2 MSTORE SWAP1 PUSH1 0x1 ADD SWAP1 PUSH1 0x20 ADD DUP1 DUP4 GT PUSH2 0x34A JUMPI DUP3 SWAP1 SUB PUSH1 0x1F AND DUP3 ADD SWAP2 JUMPDEST POP POP POP POP POP DUP2 MSTORE PUSH1 0x20 ADD PUSH1 0x1 DUP3 ADD DUP1 SLOAD PUSH2 0x380 SWAP1 PUSH2 0x87D JUMP JUMPDEST DUP1 PUSH1 0x1F ADD PUSH1 0x20 DUP1 SWAP2 DIV MUL PUSH1 0x20 ADD PUSH1 0x40 MLOAD SWAP1 DUP2 ADD PUSH1 0x40 MSTORE DUP1 SWAP3 SWAP2 SWAP1 DUP2 DUP2 MSTORE PUSH1 0x20 ADD DUP3 DUP1 SLOAD PUSH2 0x3AC SWAP1 PUSH2 0x87D JUMP JUMPDEST DUP1 ISZERO PUSH2 0x3F9 JUMPI DUP1 PUSH1 0x1F LT PUSH2 0x3CE JUMPI PUSH2 0x100 DUP1 DUP4 SLOAD DIV MUL DUP4 MSTORE SWAP2 PUSH1 0x20 ADD SWAP2 PUSH2 0x3F9 JUMP JUMPDEST DUP3 ADD SWAP2 SWAP1 PUSH1 0x0 MSTORE PUSH1 0x20 PUSH1 0x0 KECCAK256 SWAP1 JUMPDEST DUP2 SLOAD DUP2 MSTORE SWAP1 PUSH1 0x1 ADD SWAP1 PUSH1 0x20 ADD DUP1 DUP4 GT PUSH2 0x3DC JUMPI DUP3 SWAP1 SUB PUSH1 0x1F AND DUP3 ADD SWAP2 JUMPDEST POP POP POP POP POP DUP2 MSTORE PUSH1 0x20 ADD PUSH1 0x2 DUP3 ADD SLOAD DUP2 MSTORE PUSH1 0x20 ADD PUSH1 0x3 DUP3 ADD PUSH1 0x0 SWAP1 SLOAD SWAP1 PUSH2 0x100 EXP SWAP1 DIV PUSH20 0xFFFFFFFFFFFFFFFFFFFFFFFFFFFFFFFFFFFFFFFF AND PUSH20 0xFFFFFFFFFFFFFFFFFFFFFFFFFFFFFFFFFFFFFFFF AND PUSH20 0xFFFFFFFFFFFFFFFFFFFFFFFFFFFFFFFFFFFFFFFF AND DUP2 MSTORE POP POP DUP2 MSTORE PUSH1 0x20 ADD SWAP1 PUSH1 0x1 ADD SWAP1 PUSH2 0x2BB JUMP JUMPDEST POP POP POP POP SWAP1 POP SWAP1 JUMP JUMPDEST PUSH1 0x0 DUP1 REVERT JUMPDEST PUSH1 0x0 DUP1 REVERT JUMPDEST PUSH1 0x0 DUP1 REVERT JUMPDEST PUSH1 0x0 DUP1 REVERT JUMPDEST PUSH1 0x0 DUP1 REVERT JUMPDEST PUSH1 0x0 DUP1 DUP4 PUSH1 0x1F DUP5 ADD SLT PUSH2 0x4A9 JUMPI PUSH2 0x4A8 PUSH2 0x484 JUMP JUMPDEST JUMPDEST DUP3 CALLDATALOAD SWAP1 POP PUSH8 0xFFFFFFFFFFFFFFFF DUP2 GT ISZERO PUSH2 0x4C6 JUMPI PUSH2 0x4C5 PUSH2 0x489 JUMP JUMPDEST JUMPDEST PUSH1 0x20 DUP4 ADD SWAP2 POP DUP4 PUSH1 0x1 DUP3 MUL DUP4 ADD GT ISZERO PUSH2 0x4E2 JUMPI PUSH2 0x4E1 PUSH2 0x48E JUMP JUMPDEST JUMPDEST SWAP3 POP SWAP3 SWAP1 POP JUMP JUMPDEST PUSH1 0x0 DUP1 PUSH1 0x0 DUP1 PUSH1 0x40 DUP6 DUP8 SUB SLT ISZERO PUSH2 0x503 JUMPI PUSH2 0x502 PUSH2 0x47A JUMP JUMPDEST JUMPDEST PUSH1 0x0 DUP6 ADD CALLDATALOAD PUSH8 0xFFFFFFFFFFFFFFFF DUP2 GT ISZERO PUSH2 0x521 JUMPI PUSH2 0x520 PUSH2 0x47F JUMP JUMPDEST JUMPDEST PUSH2 0x52D DUP8 DUP3 DUP9 ADD PUSH2 0x493 JUMP JUMPDEST SWAP5 POP SWAP5 POP POP PUSH1 0x20 DUP6 ADD CALLDATALOAD PUSH8 0xFFFFFFFFFFFFFFFF DUP2 GT ISZERO PUSH2 0x550 JUMPI PUSH2 0x54F PUSH2 0x47F JUMP JUMPDEST JUMPDEST PUSH2 0x55C DUP8 DUP3 DUP9 ADD PUSH2 0x493 JUMP JUMPDEST SWAP3 POP SWAP3 POP POP SWAP3 SWAP6 SWAP2 SWAP5 POP SWAP3 POP JUMP JUMPDEST PUSH1 0x0 DUP2 MLOAD SWAP1 POP SWAP2 SWAP1 POP JUMP JUMPDEST PUSH1 0x0 DUP3 DUP3 MSTORE PUSH1 0x20 DUP3 ADD SWAP1 POP SWAP3 SWAP2 POP POP JUMP JUMPDEST PUSH1 0x0 DUP2 SWAP1 POP PUSH1 0x20 DUP3 ADD SWAP1 POP SWAP2 SWAP1 POP JUMP JUMPDEST PUSH1 0x0 DUP2 MLOAD SWAP1 POP SWAP2 SWAP1 POP JUMP JUMPDEST PUSH1 0x0 DUP3 DUP3 MSTORE PUSH1 0x20 DUP3 ADD SWAP1 POP SWAP3 SWAP2 POP POP JUMP JUMPDEST PUSH1 0x0 JUMPDEST DUP4 DUP2 LT ISZERO PUSH2 0x5D0 JUMPI DUP1 DUP3 ADD MLOAD DUP2 DUP5 ADD MSTORE PUSH1 0x20 DUP2 ADD SWAP1 POP PUSH2 0x5B5 JUMP JUMPDEST PUSH1 0x0 DUP5 DUP5 ADD MSTORE POP POP POP POP JUMP JUMPDEST PUSH1 0x0 PUSH1 0x1F NOT PUSH1 0x1F DUP4 ADD AND SWAP1 POP SWAP2 SWAP1 POP JUMP JUMPDEST PUSH1 0x0 PUSH2 0x5F8 DUP3 PUSH2 0x596 JUMP JUMPDEST PUSH2 0x602 DUP2 DUP6 PUSH2 0x5A1 JUMP JUMPDEST SWAP4 POP PUSH2 0x612 DUP2 DUP6 PUSH1 0x20 DUP7 ADD PUSH2 0x5B2 JUMP JUMPDEST PUSH2 0x61B DUP2 PUSH2 0x5DC JUMP JUMPDEST DUP5 ADD SWAP2 POP POP SWAP3 SWAP2 POP POP JUMP JUMPDEST PUSH1 0x0 DUP2 SWAP1 POP SWAP2 SWAP1 POP JUMP JUMPDEST PUSH2 0x639 DUP2 PUSH2 0x626 JUMP JUMPDEST DUP3 MSTORE POP POP JUMP JUMPDEST PUSH1 0x0 PUSH20 0xFFFFFFFFFFFFFFFFFFFFFFFFFFFFFFFFFFFFFFFF DUP3 AND SWAP1 POP SWAP2 SWAP1 POP JUMP JUMPDEST PUSH1 0x0 PUSH2 0x66A DUP3 PUSH2 0x63F JUMP JUMPDEST SWAP1 POP SWAP2 SWAP1 POP JUMP JUMPDEST PUSH2 0x67A DUP2 PUSH2 0x65F JUMP JUMPDEST DUP3 MSTORE POP POP JUMP JUMPDEST PUSH1 0x0 PUSH1 0x80 DUP4 ADD PUSH1 0x0 DUP4 ADD MLOAD DUP5 DUP3 SUB PUSH1 0x0 DUP7 ADD MSTORE PUSH2 0x69D DUP3 DUP3 PUSH2 0x5ED JUMP JUMPDEST SWAP2 POP POP PUSH1 0x20 DUP4 ADD MLOAD DUP5 DUP3 SUB PUSH1 0x20 DUP7 ADD MSTORE PUSH2 0x6B7 DUP3 DUP3 PUSH2 0x5ED JUMP JUMPDEST SWAP2 POP POP PUSH1 0x40 DUP4 ADD MLOAD PUSH2 0x6CC PUSH1 0x40 DUP7 ADD DUP3 PUSH2 0x630 JUMP JUMPDEST POP PUSH1 0x60 DUP4 ADD MLOAD PUSH2 0x6DF PUSH1 0x60 DUP7 ADD DUP3 PUSH2 0x671 JUMP JUMPDEST POP DUP1 SWAP2 POP POP SWAP3 SWAP2 POP POP JUMP JUMPDEST PUSH1 0x0 PUSH2 0x6F6 DUP4 DUP4 PUSH2 0x680 JUMP JUMPDEST SWAP1 POP SWAP3 SWAP2 POP POP JUMP JUMPDEST PUSH1 0x0 PUSH1 0x20 DUP3 ADD SWAP1 POP SWAP2 SWAP1 POP JUMP JUMPDEST PUSH1 0x0 PUSH2 0x716 DUP3 PUSH2 0x56A JUMP JUMPDEST PUSH2 0x720 DUP2 DUP6 PUSH2 0x575 JUMP JUMPDEST SWAP4 POP DUP4 PUSH1 0x20 DUP3 MUL DUP6 ADD PUSH2 0x732 DUP6 PUSH2 0x586 JUMP JUMPDEST DUP1 PUSH1 0x0 JUMPDEST DUP6 DUP2 LT ISZERO PUSH2 0x76E JUMPI DUP5 DUP5 SUB DUP10 MSTORE DUP2 MLOAD PUSH2 0x74F DUP6 DUP3 PUSH2 0x6EA JUMP JUMPDEST SWAP5 POP PUSH2 0x75A DUP4 PUSH2 0x6FE JUMP JUMPDEST SWAP3 POP PUSH1 0x20 DUP11 ADD SWAP10 POP POP PUSH1 0x1 DUP2 ADD SWAP1 POP PUSH2 0x736 JUMP JUMPDEST POP DUP3 SWAP8 POP DUP8 SWAP6 POP POP POP POP POP POP SWAP3 SWAP2 POP POP JUMP JUMPDEST PUSH1 0x0 PUSH1 0x20 DUP3 ADD SWAP1 POP DUP2 DUP2 SUB PUSH1 0x0 DUP4 ADD MSTORE PUSH2 0x79A DUP2 DUP5 PUSH2 0x70B JUMP JUMPDEST SWAP1 POP SWAP3 SWAP2 POP POP JUMP JUMPDEST PUSH1 0x0 DUP3 DUP3 MSTORE PUSH1 0x20 DUP3 ADD SWAP1 POP SWAP3 SWAP2 POP POP JUMP JUMPDEST PUSH32 0x506C6561736520706179206D6F7265207468616E20302E314554480000000000 PUSH1 0x0 DUP3 ADD MSTORE POP JUMP JUMPDEST PUSH1 0x0 PUSH2 0x7E9 PUSH1 0x1B DUP4 PUSH2 0x7A2 JUMP JUMPDEST SWAP2 POP PUSH2 0x7F4 DUP3 PUSH2 0x7B3 JUMP JUMPDEST PUSH1 0x20 DUP3 ADD SWAP1 POP SWAP2 SWAP1 POP JUMP JUMPDEST PUSH1 0x0 PUSH1 0x20 DUP3 ADD SWAP1 POP DUP2 DUP2 SUB PUSH1 0x0 DUP4 ADD MSTORE PUSH2 0x818 DUP2 PUSH2 0x7DC JUMP JUMPDEST SWAP1 POP SWAP2 SWAP1 POP JUMP JUMPDEST PUSH32 0x4E487B7100000000000000000000000000000000000000000000000000000000 PUSH1 0x0 MSTORE PUSH1 0x41 PUSH1 0x4 MSTORE PUSH1 0x24 PUSH1 0x0 REVERT JUMPDEST PUSH32 0x4E487B7100000000000000000000000000000000000000000000000000000000 PUSH1 0x0 MSTORE PUSH1 0x22 PUSH1 0x4 MSTORE PUSH1 0x24 PUSH1 0x0 REVERT JUMPDEST PUSH1 0x0 PUSH1 0x2 DUP3 DIV SWAP1 POP PUSH1 0x1 DUP3 AND DUP1 PUSH2 0x895 JUMPI PUSH1 0x7F DUP3 AND SWAP2 POP JUMPDEST PUSH1 0x20 DUP3 LT DUP2 SUB PUSH2 0x8A8 JUMPI PUSH2 0x8A7 PUSH2 0x84E JUMP JUMPDEST JUMPDEST POP SWAP2 SWAP1 POP JUMP JUMPDEST PUSH1 0x0 DUP2 SWAP1 POP DUP2 PUSH1 0x0 MSTORE PUSH1 0x20 PUSH1 0x0 KECCAK256 SWAP1 POP SWAP2 SWAP1 POP JUMP JUMPDEST PUSH1 0x0 PUSH1 0x20 PUSH1 0x1F DUP4 ADD DIV SWAP1 POP SWAP2 SWAP1 POP JUMP JUMPDEST PUSH1 0x0 DUP3 DUP3 SHL SWAP1 POP SWAP3 SWAP2 POP POP JUMP JUMPDEST PUSH1 0x0 PUSH1 0x8 DUP4 MUL PUSH2 0x910 PUSH32 0xFFFFFFFFFFFFFFFFFFFFFFFFFFFFFFFFFFFFFFFFFFFFFFFFFFFFFFFFFFFFFFFF DUP3 PUSH2 0x8D3 JUMP JUMPDEST PUSH2 0x91A DUP7 DUP4 PUSH2 0x8D3 JUMP JUMPDEST SWAP6 POP DUP1 NOT DUP5 AND SWAP4 POP DUP1 DUP7 AND DUP5 OR SWAP3 POP POP POP SWAP4 SWAP3 POP POP POP JUMP JUMPDEST PUSH1 0x0 DUP2 SWAP1 POP SWAP2 SWAP1 POP JUMP JUMPDEST PUSH1 0x0 PUSH2 0x957 PUSH2 0x952 PUSH2 0x94D DUP5 PUSH2 0x626 JUMP JUMPDEST PUSH2 0x932 JUMP JUMPDEST PUSH2 0x626 JUMP JUMPDEST SWAP1 POP SWAP2 SWAP1 POP JUMP JUMPDEST PUSH1 0x0 DUP2 SWAP1 POP SWAP2 SWAP1 POP JUMP JUMPDEST PUSH2 0x971 DUP4 PUSH2 0x93C JUMP JUMPDEST PUSH2 0x985 PUSH2 0x97D DUP3 PUSH2 0x95E JUMP JUMPDEST DUP5 DUP5 SLOAD PUSH2 0x8E0 JUMP JUMPDEST DUP3 SSTORE POP POP POP POP JUMP JUMPDEST PUSH1 0x0 SWAP1 JUMP JUMPDEST PUSH2 0x99A PUSH2 0x98D JUMP JUMPDEST PUSH2 0x9A5 DUP2 DUP5 DUP5 PUSH2 0x968 JUMP JUMPDEST POP POP POP JUMP JUMPDEST JUMPDEST DUP2 DUP2 LT ISZERO PUSH2 0x9C9 JUMPI PUSH2 0x9BE PUSH1 0x0 DUP3 PUSH2 0x992 JUMP JUMPDEST PUSH1 0x1 DUP2 ADD SWAP1 POP PUSH2 0x9AB JUMP JUMPDEST POP POP JUMP JUMPDEST PUSH1 0x1F DUP3 GT ISZERO PUSH2 0xA0E JUMPI PUSH2 0x9DF DUP2 PUSH2 0x8AE JUMP JUMPDEST PUSH2 0x9E8 DUP5 PUSH2 0x8C3 JUMP JUMPDEST DUP2 ADD PUSH1 0x20 DUP6 LT ISZERO PUSH2 0x9F7 JUMPI DUP2 SWAP1 POP JUMPDEST PUSH2 0xA0B PUSH2 0xA03 DUP6 PUSH2 0x8C3 JUMP JUMPDEST DUP4 ADD DUP3 PUSH2 0x9AA JUMP JUMPDEST POP POP JUMPDEST POP POP POP JUMP JUMPDEST PUSH1 0x0 DUP3 DUP3 SHR SWAP1 POP SWAP3 SWAP2 POP POP JUMP JUMPDEST PUSH1 0x0 PUSH2 0xA31 PUSH1 0x0 NOT DUP5 PUSH1 0x8 MUL PUSH2 0xA13 JUMP JUMPDEST NOT DUP1 DUP4 AND SWAP2 POP POP SWAP3 SWAP2 POP POP JUMP JUMPDEST PUSH1 0x0 PUSH2 0xA4A DUP4 DUP4 PUSH2 0xA20 JUMP JUMPDEST SWAP2 POP DUP3 PUSH1 0x2 MUL DUP3 OR SWAP1 POP SWAP3 SWAP2 POP POP JUMP JUMPDEST PUSH2 0xA63 DUP3 PUSH2 0x596 JUMP JUMPDEST PUSH8 0xFFFFFFFFFFFFFFFF DUP2 GT ISZERO PUSH2 0xA7C JUMPI PUSH2 0xA7B PUSH2 0x81F JUMP JUMPDEST JUMPDEST PUSH2 0xA86 DUP3 SLOAD PUSH2 0x87D JUMP JUMPDEST PUSH2 0xA91 DUP3 DUP3 DUP6 PUSH2 0x9CD JUMP JUMPDEST PUSH1 0x0 PUSH1 0x20 SWAP1 POP PUSH1 0x1F DUP4 GT PUSH1 0x1 DUP2 EQ PUSH2 0xAC4 JUMPI PUSH1 0x0 DUP5 ISZERO PUSH2 0xAB2 JUMPI DUP3 DUP8 ADD MLOAD SWAP1 POP JUMPDEST PUSH2 0xABC DUP6 DUP3 PUSH2 0xA3E JUMP JUMPDEST DUP7 SSTORE POP PUSH2 0xB24 JUMP JUMPDEST PUSH1 0x1F NOT DUP5 AND PUSH2 0xAD2 DUP7 PUSH2 0x8AE JUMP JUMPDEST PUSH1 0x0 JUMPDEST DUP3 DUP2 LT ISZERO PUSH2 0xAFA JUMPI DUP5 DUP10 ADD MLOAD DUP3 SSTORE PUSH1 0x1 DUP3 ADD SWAP2 POP PUSH1 0x20 DUP6 ADD SWAP5 POP PUSH1 0x20 DUP2 ADD SWAP1 POP PUSH2 0xAD5 JUMP JUMPDEST DUP7 DUP4 LT ISZERO PUSH2 0xB17 JUMPI DUP5 DUP10 ADD MLOAD PUSH2 0xB13 PUSH1 0x1F DUP10 AND DUP3 PUSH2 0xA20 JUMP JUMPDEST DUP4 SSTORE POP JUMPDEST PUSH1 0x1 PUSH1 0x2 DUP9 MUL ADD DUP9 SSTORE POP POP POP JUMPDEST POP POP POP POP POP POP JUMP INVALID LOG2 PUSH5 0x6970667358 0x22 SLT KECCAK256 LT SELFDESTRUCT REVERT COINBASE 0x24 PUSH1 0x73 0x21 0xDA 0xE0 0x4D COINBASE 0xC7 SWAP12 0xB3 BASEFEE 0xDF BASEFEE GASLIMIT PUSH25 0x964FE8AEED1366B21D21FA064736F6C634300081200330000 "
				},
				"gasEstimates": {
					"creation": {
						"codeDepositCost": "582800",
						"executionCost": "24885",
						"totalCost": "607685"
					},
					"external": {
						"buyCoffee(string,string)": "infinite",
						"getMemos()": "infinite"
					}
				},
				"methodIdentifiers": {
					"buyCoffee(string,string)": "204206e1",
					"getMemos()": "865c5172"
				}
			},
			"storageLayout": {
				"storage": [
					{
						"astId": 14,
						"contract": "contracts/chai.sol:chai",
						"label": "memos",
						"offset": 0,
						"slot": "0",
						"type": "t_array(t_struct(Memo)10_storage)dyn_storage"
					},
					{
						"astId": 16,
						"contract": "contracts/chai.sol:chai",
						"label": "owner",
						"offset": 0,
						"slot": "1",
						"type": "t_address_payable"
					}
				],
				"types": {
					"t_address": {
						"encoding": "inplace",
						"label": "address",
						"numberOfBytes": "20"
					},
					"t_address_payable": {
						"encoding": "inplace",
						"label": "address payable",
						"numberOfBytes": "20"
					},
					"t_array(t_struct(Memo)10_storage)dyn_storage": {
						"base": "t_struct(Memo)10_storage",
						"encoding": "dynamic_array",
						"label": "struct chai.Memo[]",
						"numberOfBytes": "32"
					},
					"t_string_storage": {
						"encoding": "bytes",
						"label": "string",
						"numberOfBytes": "32"
					},
					"t_struct(Memo)10_storage": {
						"encoding": "inplace",
						"label": "struct chai.Memo",
						"members": [
							{
								"astId": 3,
								"contract": "contracts/chai.sol:chai",
								"label": "name",
								"offset": 0,
								"slot": "0",
								"type": "t_string_storage"
							},
							{
								"astId": 5,
								"contract": "contracts/chai.sol:chai",
								"label": "message",
								"offset": 0,
								"slot": "1",
								"type": "t_string_storage"
							},
							{
								"astId": 7,
								"contract": "contracts/chai.sol:chai",
								"label": "setAt",
								"offset": 0,
								"slot": "2",
								"type": "t_uint256"
							},
							{
								"astId": 9,
								"contract": "contracts/chai.sol:chai",
								"label": "fromAddress",
								"offset": 0,
								"slot": "3",
								"type": "t_address"
							}
						],
						"numberOfBytes": "128"
					},
					"t_uint256": {
						"encoding": "inplace",
						"label": "uint256",
						"numberOfBytes": "32"
					}
				}
			},
			"userdoc": {
				"kind": "user",
				"methods": {},
				"version": 1
			}
		}
	}
}